:020000040800F2
:1000000000000220C1470008B1130008B313000824
:10001000B5130008B7130008B9130008000000006A
:10002000000000000000000000000000212C00087B
:10003000BB13000800000000C12C0008BD1300081D
:10004000114800081148000811480008114800082C
:10005000114800081148000811480008114800081C
:10006000114800081148000811480008114800080C
:1000700011480008114800081148000811480008FC
:1000800011480008114800081148000811480008EC
:1000900011480008114800081148000811480008DC
:1000A00011480008114800081148000811480008CC
:1000B00011480008D513000811480008114800082D
:1000C00011480008114800081148000811480008AC
:1000D000114800081148000811480008114800089C
:1000E000114800081148000811480008114800088C
:1000F000114800081148000811480008114800087C
:10010000114800081148000811480008114800086B
:10011000114800081148000811480008114800085B
:10012000114800081148000811480008114800084B
:1001300011480008000000000000000011480008FD
:10014000114800081148000811480008114800082B
:10015000114800081148000811480008114800081B
:10016000114800081148000811480008114800080B
:1001700011480008114800080000000000000000BD
:080180001148000811480008B5
:1001C00053B94AB9002908BF00281CBF4FF0FF31BE
:1001D0004FF0FF3000F00CB8ADF1080C6DE904CE23
:1001E00004F018FBDDF804E0DDE9022304B07047F9
:1001F000704700BF844641EA000313F003036DD14A
:10020000403A41D351F8043B40F8043B51F8043BD9
:1002100040F8043B51F8043B40F8043B51F8043BE0
:1002200040F8043B51F8043B40F8043B51F8043BD0
:1002300040F8043B51F8043B40F8043B51F8043BC0
:1002400040F8043B51F8043B40F8043B51F8043BB0
:1002500040F8043B51F8043B40F8043B51F8043BA0
:1002600040F8043B51F8043B40F8043B51F8043B90
:1002700040F8043B51F8043B40F8043B51F8043B80
:1002800040F8043B403ABDD2303211D351F8043B20
:1002900040F8043B51F8043B40F8043B51F8043B60
:1002A00040F8043B51F8043B40F8043B103AEDD2CF
:1002B0000C3205D351F8043B40F8043B043AF9D220
:1002C000043208D0D2071CBF11F8013B00F8013BF3
:1002D00001D30B8803806046704700BF082A13D300
:1002E0008B078DD010F003038AD0C3F10403D21A18
:1002F000DB071CBF11F8013B00F8013B80D331F84C
:10030000023B20F8023B7BE7043AD9D3013A11F8CB
:10031000013B00F8013BF9D20B7803704B78437036
:100320008B7883706046704700000000000000007A
:1003300001F0FF01102A2BDB10F0070F08D010F896
:10034000013B013A8B422DD010F0070F42B3F6D19A
:10035000F0B441EA012141EA014122F007047FF0B3
:1003600000070023F0E80256083C85EA010586EA0A
:10037000010685FA47F5A3FA87F586FA47F6A5FA46
:1003800087F68EB9EED1F0BC01F0FF0102F0070252
:1003900032B110F8013B013A83EA010313B1F8D1FD
:1003A0000020704701387047002D06BF35460338DE
:1003B000073815F0010F07D1013015F4807F02BF17
:1003C000013015F4C03F0130F0BC0138704700BF68
:1003D000000000000000000000000000000000001D
:1003E000000000000000000000000000000000000D
:1003F00000000000000000000000000000000000FD
:1004000090F800F06DE9024520F007016FF0000C54
:1004100010F0070491F820F040F049804FF00004FC
:100420006FF00700D1E9002391F840F000F10800D7
:1004300082FA4CF2A4FA8CF283FA4CF3A2FA8CF30F
:100440004BBBD1E9022382FA4CF200F10800A4FA76
:100450008CF283FA4CF3A2FA8CF3E3B9D1E90423CA
:1004600082FA4CF200F10800A4FA8CF283FA4CF301
:10047000A2FA8CF37BB9D1E9062301F1200182FABB
:100480004CF200F10800A4FA8CF283FA4CF3A2FAC1
:100490008CF3002BC6D0002A04BF04301A4612BACF
:1004A000B2FA82F2FDE8024500EBD2007047D1E9D2
:1004B000002304F00305C4F100004FEAC50514F061
:1004C000040F91F840F00CFA05F562EA05021CBF32
:1004D00063EA050362464FF00004A9E781F000419A
:1004E00002E000BF83F0004330B54FEA41044FEA19
:1004F000430594EA050F08BF90EA020F1FBF54EAB4
:10050000000C55EA020C7FEA645C7FEA655C00F04F
:10051000E2804FEA5454D4EB5555B8BF6D420CDD20
:100520002C4480EA020281EA030382EA000083EAA3
:10053000010180EA020281EA0303362D88BF30BD43
:1005400011F0004F4FEA01314FF4801C4CEA113199
:1005500002D0404261EB410113F0004F4FEA0333F8
:100560004CEA133302D0524263EB430394EA050F83
:1005700000F0A780A4F10104D5F1200E0DDB02FAF2
:100580000EFC22FA05F2801841F1000103FA0EF286
:10059000801843FA05F359410EE0A5F120050EF14C
:1005A000200E012A03FA0EFC28BF4CF0020C43FA7D
:1005B00005F3C01851EBE37101F0004507D54FF08A
:1005C000000EDCF1000C7EEB00006EEB0101B1F5DA
:1005D000801F1BD3B1F5001F0CD349085FEA300020
:1005E0004FEA3C0C04F101044FEA445212F5800F2B
:1005F00080F09A80BCF1004F08BF5FEA500C50F1C8
:10060000000041EB045141EA050130BD5FEA4C0CAA
:10061000404141EB010111F4801FA4F10104E9D133
:1006200091F0000F04BF01460020B1FA81F308BF2A
:100630002033A3F10B03B3F120020CDA0C3208DDF6
:1006400002F1140CC2F10C0201FA0CF021FA02F1D1
:100650000CE002F11402D8BFC2F1200C01FA02F141
:1006600020FA0CFCDCBF41EA0C019040E41AA2BF66
:1006700001EB0451294330BD6FEA04041F3C1CDA2E
:100680000C340EDC04F11404C4F1200220FA04F04E
:1006900001FA02F340EA030021FA04F345EA0301F8
:1006A00030BDC4F10C04C4F1200220FA02F001FABA
:1006B00004F340EA0300294630BD21FA04F029463C
:1006C00030BD94F0000F83F4801306BF81F48011D5
:1006D0000134013D4EE77FEA645C18BF7FEA655C48
:1006E00029D094EA050F08BF90EA020F05D054EA1A
:1006F000000C04BF1946104630BD91EA030F1EBF1F
:100700000021002030BD5FEA545C05D14000494122
:1007100028BF41F0004130BD14F580043CBF01F515
:10072000801130BD01F0004545F0FE4141F47001FB
:100730004FF0000030BD7FEA645C1ABF19461046D6
:100740007FEA655C1CBF0B46024650EA013406BFD7
:1007500052EA033591EA030F41F4002130BD00BF96
:1007600090F0000F04BF0021704730B54FF4806453
:1007700004F132044FF000054FF0000150E700BFD4
:1007800090F0000F04BF0021704730B54FF4806433
:1007900004F1320410F0004548BF40424FF0000120
:1007A0003EE700BF42004FEAE2014FEA31014FEA63
:1007B00002701FBF12F07F4393F07F4F81F06051B2
:1007C000704732F07F4208BF704793F07F4F04BFFD
:1007D00041F40021704730B54FF4607401F00045DA
:1007E00021F000411CE700BF50EA010208BF70473A
:1007F00030B54FF000050AE050EA010208BF70472B
:1008000030B511F0004502D5404261EB41014FF493
:10081000806404F132045FEA915C3FF4D8AE4FF09B
:1008200003025FEADC0C18BF03325FEADC0C18BF7E
:10083000033202EBDC02C2F1200300FA03FC20FACF
:1008400002F001FA03FE40EA0E0021FA02F114441C
:10085000BDE600BF70B54FF0FF0C4CF4E06C1CEA35
:1008600011541DBF1CEA135594EA0C0F95EA0C0FA6
:1008700000F0DEF82C4481EA030621EA4C5123EA19
:100880004C5350EA013518BF52EA033541F4801148
:1008900043F4801338D0A0FB02CE4FF00005E1FBFB
:1008A00002E506F00042E0FB03E54FF00006E1FB45
:1008B00003569CF0000F18BF4EF0010EA4F1FF0488
:1008C000B6F5007F64F5407404D25FEA4E0E6D41C8
:1008D00046EB060642EAC62141EA55514FEAC520D9
:1008E00040EA5E504FEACE2EB4F1FD0C88BFBCF555
:1008F000E06F1ED8BEF1004F08BF5FEA500E50F106
:10090000000041EB045170BD06F0004646EA0101CB
:1009100040EA020081EA0301B4EB5C04C2BFD4EBFD
:100920000C0541EA045170BD41F480114FF0000EF6
:10093000013C00F3AB8014F1360FDEBF002001F064
:10094000004170BDC4F10004203C35DA0C341BDCDE
:1009500004F11404C4F1200500FA05F320FA04F0B0
:1009600001FA05F240EA020001F0004221F00041E4
:1009700010EBD37021FA04F642EB06015EEA430E57
:1009800008BF20EAD37070BDC4F10C04C4F1200587
:1009900000FA04F320FA05F001FA04F240EA02003A
:1009A00001F0004110EBD37041F100015EEA430E0B
:1009B00008BF20EAD37070BDC4F1200500FA05F22B
:1009C0004EEA020E20FA04F301FA05F243EA0203AA
:1009D00021FA04F001F0004121FA04F220EA0200B9
:1009E00000EBD3705EEA430E08BF20EAD37070BDFF
:1009F00094F0000F0FD101F00046400041EB0101DF
:100A000011F4801F08BF013CF7D041EA060195F0C0
:100A1000000F18BF704703F00046520043EB03037A
:100A200013F4801F08BF013DF7D043EA0603704767
:100A300094EA0C0F0CEA135518BF95EA0C0F0CD072
:100A400050EA410618BF52EA4306D1D181EA0301B8
:100A500001F000414FF0000070BD50EA410606BFB2
:100A60001046194652EA430619D094EA0C0F02D1F7
:100A700050EA013613D195EA0C0F05D152EA03363C
:100A80001CBF104619460AD181EA030101F000415A
:100A900041F0FE4141F470014FF0000070BD41F0A3
:100AA000FE4141F4780170BD70B54FF0FF0C4CF47D
:100AB000E06C1CEA11541DBF1CEA135594EA0C0F9C
:100AC00095EA0C0F00F0A7F8A4EB050481EA030EE9
:100AD00052EA03354FEA013100F088804FEA0333D0
:100AE0004FF0805545EA131343EA12634FEA02229E
:100AF00045EA111545EA10654FEA00260EF000415F
:100B00009D4208BF964244F1FD0404F5407402D2B0
:100B10005B084FEA3202B61A65EB03055B084FEA41
:100B200032024FF480104FF4002CB6EB020E75EB3E
:100B3000030E22BFB61A754640EA0C005B084FEA66
:100B40003202B6EB020E75EB030E22BFB61A7546E3
:100B500040EA5C005B084FEA3202B6EB020E75EB2E
:100B6000030E22BFB61A754640EA9C005B084FEAA6
:100B70003202B6EB020E75EB030E22BFB61A7546B3
:100B800040EADC0055EA060E18D04FEA051545EAA2
:100B900016754FEA06164FEAC30343EA52734FEA4B
:100BA000C2025FEA1C1CC0D111F4801F0BD141EAC4
:100BB00000014FF000004FF0004CB6E711F4801F29
:100BC00004BF01430020B4F1FD0C88BFBCF5E06F09
:100BD0003FF6AFAEB5EB030C04BFB6EB020C5FEA19
:100BE000500C50F1000041EB045170BD0EF0004E6E
:100BF0004EEA113114EB5C04C2BFD4EB0C0541EAA0
:100C0000045170BD41F480114FF0000E013C90E69C
:100C100045EA060E8DE60CEA135594EA0C0F08BF60
:100C200095EA0C0F3FF43BAF94EA0C0F0AD150EA5F
:100C300001347FF434AF95EA0C0F7FF425AF1046F2
:100C400019462CE795EA0C0F06D152EA03353FF41A
:100C5000FDAE1046194622E750EA410618BF52EA97
:100C600043067FF4C5AE50EA41047FF40DAF52EA6B
:100C700043057FF4EBAE12E74FF0FF3C06E000BF08
:100C80004FF0010C02E000BF4FF0010C4DF804CD15
:100C90004FEA410C7FEA6C5C4FEA430C18BF7FEAD5
:100CA0006C5C1BD001B050EA410C0CBF52EA430C03
:100CB00091EA030F02BF90EA020F0020704710F183
:100CC000000F91EA030F58BF994208BF90422CBF12
:100CD000D8176FEAE37040F0010070474FEA410C0B
:100CE0007FEA6C5C02D150EA013C07D14FEA430C29
:100CF0007FEA6C5CD6D152EA033CD3D05DF8040B9A
:100D0000704700BF8446104662468C4619466346CB
:100D100000E000BF01B5FFF7B7FF002848BF10F1A2
:100D2000000F01BD4DF808EDFFF7F4FF0CBF0120E7
:100D300000205DF808FB00BF4DF808EDFFF7EAFF63
:100D400034BF012000205DF808FB00BF4DF808ED1E
:100D5000FFF7E0FF94BF012000205DF808FB00BF13
:100D60004DF808EDFFF7CEFF94BF012000205DF89D
:100D700008FB00BF4DF808EDFFF7C4FF34BF0120AA
:100D800000205DF808FB00BF4FEA410C7FEA6C5C75
:100D900002D150EA013C0AD14FEA430C7FEA6C5C75
:100DA00002D152EA033C02D14FF0000070474FF0ED
:100DB000010070474FEA410212F5001215D211D519
:100DC0006FF47873B3EB625212D94FEAC12343F048
:100DD000004343EA505311F0004F23FA02F018BFCA
:100DE000404270474FF00000704750EA013005D193
:100DF00011F0004008BF6FF0004070474FF0000056
:100E0000704700BF0348044B834202D0034B03B139
:100E100018477047C0090020C009002000000000EA
:100E200005480649091A891001EBD171491002D011
:100E3000034B03B118477047C0090020C0090020C8
:100E40000000000010B5064C237843B9FFF7DAFF25
:100E5000044B13B10448AFF300800123237010BD8D
:100E6000C0090020000000005899000808B5054B93
:100E70001BB105490548AFF30080BDE80840FFF706
:100E8000CFBF00BF00000000C4090020589900082F
:100E900038B50F4D0121284600F0C3FC0D4C2068E9
:100EA00000F04AFB0221284600F0BBFC206800F05D
:100EB00043FB0421284600F0B4FC206800F03CFB12
:100EC0000821284600F0ADFC206800F035FB38BD55
:100ED000000402400000002038B50C4C05212046DB
:100EE00000F09FFC0A4D286800F026FB0A212046EE
:100EF00000F097FC0521204600F093FC286800F0E4
:100F00001BFB0A21204600F08CFC38BD0004024087
:100F10000000002070B58AB0002405940694079460
:100F2000089409940194214B1A6B42F080021A63D1
:100F30001A6B02F080020192019A02941A6B42F03D
:100F400001021A631A6B02F001020292029A0394E0
:100F50001A6B42F002021A631A6B02F00202039249
:100F6000039A04941A6B42F004021A631B6B03F099
:100F700004030493049B0E4D22460F21284600F0E3
:100F80004AFC0323059306940126079605A9094800
:100F900000F050FB0F23059306960794089405A9CB
:100FA000284600F047FB0AB070BD00BF0038024081
:100FB000000402400000024008B50AE00C4B1B6828
:100FC00098470C4B19680C4803F006FE012001F00D
:100FD000BAFB3223002201210848006801F012FC0C
:100FE0000128EBD100220F21054800F014FCE5E7B1
:100FF000805B00200000002070990008845B0020C6
:1010000000040240064B1A68064B9A4203D0044B78
:10101000044A1A607047024B034A1A60704700BFC7
:10102000805B0020910E0008D90E000808B50FE083
:101030000221284800F0E8FB38B90FE0FFF7E2FF93
:101040000121254B186801F0AFFB012001F07BFB6B
:101050000121204800F0D8FB0028E9D1642001F0EC
:1010600072FB01211B4800F0CFFB88B9022119480F
:1010700000F0CAFB60B90121164800F0C5FB00284A
:10108000DCD10221134800F0BFFB0028F3D0D5E7E4
:101090000121104800F0B8FB80B102210D4800F09A
:1010A000B3FB0028D1D102210A4800F0ADFB002893
:1010B000F9D00A4A136864331360C6E70121054872
:1010C00000F0A2FB0028F9D0044A1368643B1360C7
:1010D000BBE700BF00000240845B0020000000204E
:1010E00000B583B001906423032201A9034801F0F5
:1010F0002DFA019803B05DF804FB00BFD45B00201B
:1011000072B6FEE708B50A480A4B03604FF4E133B4
:10111000436000238360C36003610C2242618361EA
:10112000C36101F0E4F900B908BDFFF7E9FF00BFB2
:10113000D45B0020004C004000B587B00023029330
:10114000039304930593009301931348134A026099
:10115000436083604FF6FF72C2600361836100F0F9
:10116000FBFF90B94FF48053029302A90A4801F0A3
:101170002BF860B90023009301936946064801F0FB
:10118000A3F830B907B05DF804FBFFF7B9FFFFF72C
:10119000B7FFFFF7B5FF00BF885B002000040040E9
:1011A00000B595B03022002108A803F0C5FC00234B
:1011B000039304930593069307930193204A116CBC
:1011C00041F080511164126C02F080520192019A38
:1011D00002931C4B1A6842F480421A601B6803F4A5
:1011E00080430293029B012308934FF480330993B9
:1011F00002220E924FF480030F9304231093A82130
:1012000011911292139308A800F014FB98B90F23C0
:10121000039302230493002305934FF4A0530693F2
:101220004FF480530793052103A800F069FD20B90E
:1012300015B05DF804FBFFF763FFFFF761FF00BF28
:10124000003802400070004008B5124B124A1A6084
:1012500000F046F9FFF7A4FFFFF75CFEFFF752FF2F
:10126000FFF76AFF01F0E0F90C4A00210C4801F099
:101270000BFA0C4B18600C4A00210C4801F004FAE0
:101280000B4B18600B4801F06CFA0B4B186001F027
:10129000DFF9FEE7805B0020910E000874990008DA
:1012A000B90F00087C5B0020A89900082D100008E9
:1012B000D05B002098990008845B002000B583B0C3
:1012C000002200920D4B596C41F480415964596CD5
:1012D00001F48041009100990192196C41F0805114
:1012E00019641B6C03F080530193019B0F216FF075
:1012F000010000F047F903B05DF804FB003802403C
:1013000002680E4B9A4200D0704700B583B00022AD
:10131000019203F50D33196C41F0020119641B6C45
:1013200003F002030193019B05211D2000F02AF91F
:101330001D2000F05BF903B05DF804FB00040040E1
:1013400000B589B000230393049305930693079394
:101350000268154B9A4202D009B05DF804FB0021E7
:10136000019103F5F6331A6C42F400221A641A6CE8
:1013700002F400220192019A02911A6B42F00402D7
:101380001A631B6B03F004030293029B4FF4406348
:10139000039302230493032306930823079303A9CB
:1013A000024800F047F9D7E7004C0040000802402F
:1013B000FEE7FEE7FEE7FEE7FEE7704708B500F050
:1013C000A9F802F059FF012800D108BD01F0AAFCDC
:1013D000FBE7000008B5024800F09CFD08BD00BF17
:1013E000885B002070B50C4616460025B54207DA2A
:1013F000AFF30080214601F8010B01350C46F5E7FB
:10140000304670BD70B50C4616460025B54205DA6B
:1014100014F8010BFFF764FE0135F7E7304670BDA5
:101420004FF0FF3070474FF400534B60002070477F
:10143000012070470020704710B503460C4A0D4943
:101440000D48006840B10C4800680344521A9342AA
:1014500006D8094A136010BD0748084C0460F2E73B
:1014600003F040FB0C2303604FF0FF30F3E700BFB5
:101470000000022000040000DC090020885C00203D
:10148000034AD2F8883043F47003C2F888307047BA
:1014900000ED00E010B504460E4B18784FF47A7357
:1014A000B3FBF0F30C4A1068B0FBF3F000F0ACF8BB
:1014B00068B90F2C01D901200AE0002221464FF023
:1014C000FF3000F05FF8054B1C60002000E00120B9
:1014D00010BD00BF08000020040000200C00002008
:1014E00008B50B4B1A6842F400721A601A6842F48D
:1014F00080621A601A6842F480721A60032000F059
:101500002FF80F20FFF7C6FFFFF7D8FE002008BD19
:10151000003C0240034A1168034B1B780B441360E4
:10152000704700BF185C002008000020014B1868BD
:10153000704700BF185C002038B50446FFF7F6FF7F
:101540000546B4F1FF3F02D0044B1B781C44FFF763
:10155000EDFF401BA042FAD338BD00BF08000020B9
:10156000074AD36823F4E0631B041B0C000200F459
:10157000E060184340F0BF6040F40030D060704736
:1015800000ED00E030B4174BDB68C3F30223C3F176
:101590000704042C28BF04241D1D062D01D9033B7C
:1015A00000E000234FF0FF3505FA04F421EA0401BE
:1015B000994005FA03F322EA03031943002809DBE3
:1015C0000901C9B200F1604000F5614080F80013E4
:1015D00030BC704700F00F000901C9B2024B19542A
:1015E000F6E700BF00ED00E014ED00E0002807DBA7
:1015F00000F01F02400901239340024A42F82030C4
:10160000704700BF00E100E00138B0F1807F0AD2EE
:10161000064B5860064AF02182F82310002098609B
:1016200007221A6070470120704700BF10E000E0F9
:1016300000ED00E000230F2B00F2DC80F0B482B05C
:101640005DE086685F000324BC4026EA0406CC689F
:10165000BC4034438460466826EA02064C68C4F302
:1016600000129A403243426056E0DC08083450F8D9
:10167000247003F0070296000F22B24027EA020707
:101680000A69B2403A4340F8242059E0072200E0BA
:101690000022B2403A430234574E46F82420574ABB
:1016A0009468EA4302EA04064F6817F4801F01D0E9
:1016B00045EA0406514CA660E46802EA04064F6855
:1016C00017F4001F01D045EA04064C4CE66064683C
:1016D00002EA04064F6817F4003F01D045EA040609
:1016E000464C6660246822404E6816F4803F01D064
:1016F00045EA0402414C226001330F2B77D80122C6
:101700009A400C6804EA0205AA42F5D14C6804F03C
:101710000304013C012C94D94A6802F00302032A15
:1017200009D0C4685E000322B24024EA02048A6839
:10173000B2402243C2604A6802F00302022A94D0F7
:1017400004685E000322B24024EA02044A6802F000
:101750000302B240224302604A6812F4403FCBD0F9
:1017600000220192264A546C44F480445464526C22
:1017700002F480420192019A9C08A61C1E4A52F86B
:10178000267003F0030296000F22B24027EA0207F8
:101790001C4A90423FF47CAF02F5806290421AD01E
:1017A00002F58062904218D002F58062904216D015
:1017B00002F58062904214D002F58062904212D00D
:1017C00002F58062904210D002F5806290423FF4B0
:1017D0005DAF08225DE701225BE7022259E70322A1
:1017E00057E7042255E7052253E7062251E702B0E6
:1017F000F0BC7047704700BF00380140003C01401A
:1018000000380240000002400369194201D0012063
:101810007047002070470AB18161704709048161F7
:101820007047436901EA030221EA030141EA0241E8
:1018300081617047002800F0DF8170B582B00446F6
:10184000036813F0010F3BD0A64B9B6803F00C0319
:10185000042B2CD0A34B9B6803F00C03082B21D046
:101860006368B3F5803F4FD0B3F5A02F52D09D4BA6
:101870001A6822F480321A601A6822F480221A60F0
:101880006368002B50D0FFF751FE0546954B1B684F
:1018900013F4003F14D1FFF749FE401B6428F5D92B
:1018A0000320B0E18F4B5B6813F4800FD8D08D4BD1
:1018B0001B6813F4003F03D06368002B00F09E8187
:1018C000236813F0020F54D0864B9B6813F00C0F63
:1018D0003ED0844B9B6803F00C03082B33D0E368A5
:1018E000002B67D0804B01221A60FFF71FFE0546D0
:1018F0007C4B1B6813F0020F53D1FFF717FE401B00
:101900000228F5D903207EE1764A136843F4803338
:101910001360B5E7734B1A6842F480221A601A68A4
:1019200042F480321A60ABE7FFF700FE05466D4BCC
:101930001B6813F4003FC3D0FFF7F8FD401B642879
:10194000F5D903205FE1674B5B6813F4800FC6D1C4
:10195000644B1B6813F0020F03D0E368012B40F0C7
:101960004F81604A136823F0F803216943EAC103F9
:101970001360236813F0080F40D0636963B35B4BB7
:1019800001221A60FFF7D2FD0546564B5B6F13F03C
:10199000020F33D1FFF7CAFD401B0228F5D90320FF
:1019A00031E1504A136823F0F803216943EAC10387
:1019B0001360DEE74C4B00221A60FFF7B7FD0546C7
:1019C000484B1B6813F0020FD3D0FFF7AFFD401B4D
:1019D0000228F5D9032016E1444B00221A60FFF7D4
:1019E000A5FD05463F4B5B6F13F0020F06D0FFF7D6
:1019F0009DFD401B0228F5D9032004E1236813F064
:101A0000040F78D0374B1B6C13F0805F33D1002369
:101A10000193344B1A6C42F080521A641B6C03F031
:101A200080530193019B0125314B1B6813F4807F88
:101A300023D0A368012B34D0052B38D0294B1A6F43
:101A400022F001021A671A6F22F004021A67A368D3
:101A5000002B36D0FFF76AFD0646224B1B6F13F0B2
:101A6000020F47D1FFF762FD801B41F28833984295
:101A7000F3D90320C7E00025D6E71D4A136843F4D5
:101A800080731360FFF752FD0646194B1B6813F471
:101A9000807FCED1FFF74AFD801B0228F5D90320B5
:101AA000B1E0104A136F43F001031367CFE70D4B0A
:101AB0001A6F42F004021A671A6F42F001021A67A5
:101AC000C5E7FFF733FD0646064B1B6F13F0020F09
:101AD00010D0FFF72BFD801B41F288339842F3D9D9
:101AE000032090E00038024000004742800E474249
:101AF00000700040EDB9A369002B00F08380494AD3
:101B0000926802F00C02082A51D0022B17D0464BE3
:101B100000221A60FFF70AFD0446424B1B6813F0CF
:101B2000007F42D0FFF702FD001B0228F5D90320F9
:101B300069E03C4A136C23F080531364DBE73A4BB3
:101B400000221A60FFF7F2FC0546364B1B6813F0C3
:101B5000007F06D0FFF7EAFC401B0228F5D90320DE
:101B600051E0E369226A1343626A43EA8213A26A7C
:101B70005208013A43EA0243E26A43EA0263294A0D
:101B80005360294B01221A60FFF7D0FC0446254B15
:101B90001B6813F0007F06D1FFF7C8FC001B02286A
:101BA000F5D903202FE000202DE000202BE0012BB1
:101BB0002BD01C4B5B6803F48001E269914226D173
:101BC00003F03F02216A8A4223D1616A47F6C0725C
:101BD0001A40B2EB811F1ED103F44031A26A5208B1
:101BE000013AB1EB024F18D103F07063E26AB3EB34
:101BF000026F14D1002006E001207047012002E0AE
:101C0000012000E0002002B070BD0120FBE70120B0
:101C1000F9E70120F7E70120F5E70120F3E70120CC
:101C2000F1E700BF0038024060004742314B9B683B
:101C300003F00C03042B58D0082B58D170B52D4B52
:101C40005A6802F03F025B6813F4800F2AD0294BD8
:101C50005868C0F388100546002643011B1A66EB3E
:101C60000604A10141EA93619801C01A61EB0401E5
:101C7000CB0043EA5073C4001946601946EB0101DA
:101C80004B0243EAD0534402204619463346FEF73E
:101C900097FA184B5B68C3F3014301335B00B0FB59
:101CA000F3F070BD134B5868C0F38810054600264A
:101CB00043011B1A66EB0604A10141EA93619801F6
:101CC000C01A61EB0401CB0043EA5073C40019460B
:101CD000601946EB01018B0243EA905384022046CF
:101CE00019463346FEF76CFAD3E7034870470348BA
:101CF000704700BF0038024000127A000024F40050
:101D0000002800F09B8070B50446504B1B6803F020
:101D100007038B4208D2CBB24C4A1370136803F00E
:101D200007038B4240F08C80236813F0020F17D01A
:101D300013F0040F04D0464A936843F4E0539360D1
:101D4000236813F0080F04D0414A936843F46043BA
:101D500093603F4A936823F0F003A06803439360C5
:101D60000D46236813F0010F32D06368012B21D098
:101D70009A1E012A25D9364A126812F0020F61D044
:101D800033498A6822F0030213438B60FFF7CEFBCE
:101D900006462F4B9B6803F00C036268B3EB820F7F
:101DA00016D0FFF7C3FB801B41F288339842F0D96D
:101DB000032042E0264A126812F4003FE0D10120DD
:101DC0003BE0234A126812F0007FD9D1012034E0B1
:101DD0001E4B1B6803F00703AB4207D9EAB21B4B4B
:101DE0001A701B6803F00703AB422DD1236813F070
:101DF000040F06D0164A936823F4E053E1680B43BE
:101E00009360236813F0080F07D0114A936823F4F6
:101E10006043216943EAC1039360FFF707FF0C4B5E
:101E20009B68C3F303130B4AD35CD8400A4B18607A
:101E30000A4B1868FFF72EFB002070BD0120704789
:101E40000120FAE70120F8E70120F6E7003C024014
:101E500000380240F0990008040000200C00002027
:101E6000014B1868704700BF0400002008B5FFF759
:101E7000F7FF044B9B68C3F38223034AD35CD8402B
:101E800008BD00BF00380240009A000808B5FFF7FF
:101E9000E7FF044B9B68C3F34233034AD35CD8404B
:101EA00008BD00BF00380240009A000810B4036A61
:101EB000046A24F001040462846924F0F00444EA12
:101EC000021223F00A030B43826103625DF8044BA4
:101ED000704710B4036A23F0100303628469036A35
:101EE00024F4704444EA023223F0A00343EA0113CD
:101EF000826103625DF8044B7047836823F07003CE
:101F0000194341F00701816070477047704770477F
:101F10007047704710B5044603681A6912F0020F43
:101F200011D0DA6812F0020F0DD06FF002021A61C0
:101F30000123037703689B6913F0030F70D0FFF749
:101F4000E6FF0023237723681A6912F0040F12D0EA
:101F5000DA6812F0040F0ED06FF004021A61022347
:101F6000237723689B6913F4407F5FD02046FFF7F7
:101F7000CEFF0023237723681A6912F0080F12D0CE
:101F8000DA6812F0080F0ED06FF008021A6104230D
:101F900023772368DB6913F0030F4ED02046FFF749
:101FA000B6FF0023237723681A6912F0100F12D0AE
:101FB000DA6812F0100F0ED06FF010021A610823C9
:101FC00023772368DB6913F4407F3DD02046FFF779
:101FD0009EFF0023237723681A6912F0010F03D0B4
:101FE000DA6812F0010F36D123681A6912F0800FF7
:101FF00003D0DA6812F0800F34D123681A6912F026
:10200000400F03D0DA6812F0400F32D123681A690A
:1020100012F0200F03D0DA6812F0200F30D110BD7B
:10202000FFF774FF2046FFF773FF8AE72046FFF7AC
:102030006DFF2046FFF76CFF9BE72046FFF766FF2A
:102040002046FFF765FFACE72046FFF75FFF20461D
:10205000FFF75EFFBDE76FF001021A612046FFF750
:1020600054FFC1E76FF080021A61204600F071F959
:10207000C3E76FF040021A612046FFF74AFFC5E749
:102080006FF020021A61204600F062F9C7E70000F5
:102090000368304A904212D0B0F1804F0FD0A2F5C1
:1020A0007C4290420BD002F58062904207D002F54C
:1020B0008062904203D002F57842904203D123F02F
:1020C00070034A681343234A90422AD0B0F1804FEC
:1020D00027D0A2F57C42904223D002F58062904244
:1020E0001FD002F5806290421BD002F578429042E8
:1020F00017D002F57052904213D002F580629042E0
:102100000FD002F5806290420BD0A2F59832904237
:1021100007D002F58062904203D002F580629042BF
:1021200003D123F44073CA68134323F080034A6940
:10213000134303608B68C3620B688362054B98424C
:1021400003D003F58063984201D10B690363012337
:10215000436170470000014040B310B5044690F859
:102160003D30F3B1022384F83D30214651F8040B91
:10217000FFF78EFF012384F8463084F83E3084F860
:102180003F3084F8403084F8413084F8423084F89D
:10219000433084F8443084F8453084F83D300020E2
:1021A00010BD80F83C30FFF7ABF8DBE7012070474B
:1021B00010B4846824F47F4442EA03230B4323438E
:1021C00083605DF8044B704790F83C30012B79D068
:1021D00010B50446012380F83C30022380F83D30DE
:1021E0000268936823F47F4323F0770393600B68BE
:1021F000402B54D011D9702B39D023D8502B43D039
:10220000602B1DD1CA6849680068FFF762FE602133
:102210002068FFF772FE00200BE0102B4AD005D992
:10222000202B47D0302B45D0012002E0002B41D09D
:102230000120012384F83D30002384F83C3010BD98
:102240000120F6E7B3F5805F3AD0B3F5005F0CD11B
:10225000CB684A6889680068FFF7AAFF226893681C
:1022600043F4804393600020E3E70120E1E7CB687B
:102270004A6889680068FFF79BFF2268936843F00B
:10228000770393600020D4E7CA6849680068FFF7C5
:102290000DFE50212068FFF730FE0020C9E7CA6814
:1022A00049680068FFF702FE40212068FFF725FE1D
:1022B0000020BEE719462068FFF71FFE0020B8E7A0
:1022C0000020B6E70220704790F83C30012B3BD04D
:1022D00030B4012380F83C30022380F83D3003689D
:1022E0005C689D6824F070040A6822435A600368A1
:1022F000164A93421AD0B3F1804F17D0A2F57C4210
:10230000934213D002F5806293420FD002F58062AF
:1023100093420BD002F57842934207D002F57052F7
:10232000934203D0A2F59432934204D125F0800564
:102330004A6815439D60012380F83D30002380F8F2
:102340003C30184630BC7047022070470000014006
:102350007047704770B504460268136923F4405310
:10236000C1680B43136183680269134342691343D5
:10237000C2691A430168CB6823F4164323F00C03A7
:102380001343CB600268536923F4407381690B43A4
:1023900053610368344A934206D002F58062934247
:1023A00002D0FFF763FD01E0FFF770FDE369B3F5CD
:1023B000004F2AD00026051846EB06012D1846EBE3
:1023C0000101CB0043EA5573EA00154619466368DC
:1023D0009A009B0F281846EB0101FDF7F1FE234DF3
:1023E000A5FB00325109642303FB11031B013233A7
:1023F000A5FB03235B0903F0F00202EB011203F0DB
:102400000F03216813448B6070BD0026051846EB4E
:1024100006012D1846EB0101CB0043EA5573EA0093
:102420001546194662683346921846EB030328188E
:1024300046EB0101FDF7C4FE0C4DA5FB003251092E
:10244000642303FB1103DB003233A5FB03235B0989
:102450005A0002F4F87202EB011203F0070321683C
:1024600013448B60D0E700BF001001401F85EB5183
:102470002DE9F04104460F4616469846069D23680E
:102480001B6837EA03030CBF01230023B3422BD19F
:10249000B5F1FF3FF3D02DB1FFF748F8A0EB0800EE
:1024A000A842ECD9226802F10C0353E8003F23F460
:1024B000D0730C3242E800310029F3D1226802F1D6
:1024C000140353E8003F23F00103143242E80031C3
:1024D0000029F3D1202384F83D3084F83E300023D6
:1024E00084F83C30032000E00020BDE8F08158B3C0
:1024F00010B5044690F83D300BB3242384F83D30EA
:102500002268D36823F40053D3602046FFF722FFEC
:102510002268136923F4904313612268536923F0FE
:102520002A0353612268D36843F40053D360002028
:102530002064202384F83D3084F83E3010BD80F8BC
:102540003C30FEF7FDFED8E7012070472DE9F04151
:1025500082B01E4690F83D30DBB2202B54D10446A9
:102560000D469046002954D0002A54D090F83C30B3
:10257000012B52D0012380F83C3000230364212337
:1025800080F83D30FEF7D2FF0746A4F82480A4F877
:102590002680A368B3F5805F05D04FF000080023C4
:1025A00084F83C3011E0236913B14FF00008F6E7DE
:1025B000A8460025F3E738F8023B2268C3F3080376
:1025C0005360E38C013B9BB2E384E38C9BB273B119
:1025D00000963B46002280212046FFF749FFF0B9D4
:1025E000002DE8D015F8012B23685A60E9E7009622
:1025F0003B46002240212046FFF73AFF034680B9C0
:10260000202284F83D2000E00223184602B0BDE8F5
:10261000F0810123F9E70123F7E70223F5E703231C
:10262000F3E70323F1E70000EFF305833BB9074B22
:102630001B683BB9054B01221A60002070476FF000
:10264000050070474FF0FF30704700BF6810002052
:10265000EFF3058373B90A4B1B68012B0DD110B53D
:102660000024084BDC77064B02221A6001F0DEFAE8
:10267000204610BD6FF0050070474FF0FF307047E7
:102680006810002000ED00E0F0B587B0002405944C
:10269000EFF305847CBB70B32AB31668946904B960
:1026A0001824631E372B4AD8536813F0010F48D102
:1026B000556975B14FEA950C936833B1D768B7F592
:1026C000916F02D3176907B1C5B92BB14FF0FF3530
:1026D0000EE04FF0800CEFE7D3688BB9136993B12C
:1026E0004FF0FF3504E0002518244FF0800C2E46F3
:1026F000012D0AD0ADB1059807B0F0BD0125F7E76F
:102700004FF0FF35F4E70025F2E713699268029273
:10271000019300940B466246314601F017FA05908A
:10272000E9E705AA019200940B461FFA8CF23146A4
:1027300001F048FA0128DED000230593DBE70020F2
:10274000DAE70020D8E708B5EFF3058333B908B915
:10275000002008BD01F0D6FB0020FAE76FF005006D
:10276000F7E708B5EFF30583CBB9A0B1836813B1E0
:10277000C2681F2A0BD82BB14FF0FF338BB900F082
:10278000C8F808BDC36843B14FF0FF33F6E71846F9
:1027900000F09AF8F5E70023F0E70023EEE70020C9
:1027A000EFE70020EDE70000F0B111F07F4F1ED100
:1027B00010B582B00C46EFF305838BB10023019373
:1027C00001AA00F087F9A8B1019BB3B10C4B4FF0FF
:1027D00080521A60BFF34F8FBFF36F8F204601E026
:1027E00000F02CF902B010BD6FF0030070476FF0DD
:1027F000030070476FF00200F4E72046F2E700BFE5
:1028000004ED00E048B3F0B583B0044611F07F4F0B
:1028100026D1EFF3058038BB12F0010613D0012753
:1028200012F0020F11D0002220461D460C460093E4
:102830003B4600F07DF856B134EA000312D0B5B142
:102840006FF001000EE00027EAE70122ECE7044206
:1028500008D17DB16FF0010004E06FF00300704714
:102860006FF0030003B0F0BD6FF00500FAE76FF002
:102870000200F7E76FF00200F4E70000034B03608B
:10288000034B0B6080231360704700BFE00B0020F8
:10289000E0090020034B0360034B0B604FF480738F
:1028A00013607047701400206C1000201AB90842A1
:1028B00006D10020704731EA000303D000207047A2
:1028C000012070470120704780B110B582B00446E6
:1028D00020230193019B202B11D04FF0500383F351
:1028E0001188BFF36F8FBFF34F8FFEE74FF0500398
:1028F00083F31188BFF36F8FBFF34F8FFEE7002381
:1029000040F8043B00F0F0F801232377204602B0A2
:1029100010BD38B5202000F04BFB044628B100253F
:1029200040F8045B00F0E0F82577204638BD000051
:102930002DE9F047DDF8209060B1064611F07F4A9E
:1029400011D04FF0500383F31188BFF36F8FBFF3A3
:102950004F8FFEE74FF0500383F31188BFF36F8F63
:10296000BFF34F8FFEE741B94FF0500383F3118857
:10297000BFF36F8FBFF34F8FFEE7984617460C46A5
:1029800001F07AFC58B9B9F1000F08D04FF05003AC
:1029900083F31188BFF36F8FBFF34F8FFEE701F012
:1029A00097F93568424621462846FFF77FFFE0B198
:1029B00017B125EA0403336001F026FABAF1000FDB
:1029C00010D038B91C4B4FF080521A60BFF34F8FB4
:1029D000BFF36F8F01F0A8FC054610F0007F1BD0FD
:1029E00025F07F452846BDE8F087B9F1000F11D0EA
:1029F0006FB90021B8F1000F01D041F080614A4663
:102A00002143301D01F010FBCA460025D4E74FF0EA
:102A10008071EFE7CA46CFE700F014F93568424607
:102A200021462846FFF742FF18B117B125EA0404F2
:102A3000346000F029F9D3E704ED00E0F8B560B1A7
:102A4000044611F07F4F11D04FF0500383F31188EB
:102A5000BFF36F8FBFF34F8FFEE74FF0500383F349
:102A60001188BFF36F8FBFF34F8FFEE70D4600F164
:102A70000C0601F02DF9206923682B432360002503
:102A80000AE0216833EA010105D111E0216841F033
:102A9000007101F059FB3846B0420ED04768026819
:102AA00022F07F4312F0806FEBD121681942F2D0FF
:102AB00012F0807FEAD01D43E8E7236823EA05038C
:102AC000236001F0A1F92068F8BD08B5FFF7B6FF53
:102AD00008BD000008B513460A460146014801F04A
:102AE0005BFE08BDCB2A000800F1080343604FF0ED
:102AF000FF328260C36003610023036070470023DC
:102B00000361704743684B609A688A6051609960BE
:102B10000861036801330360704730B40D68B5F194
:102B2000FF3F02D000F1080202E0026904E01A4609
:102B300053681C68AC42FAD953684B6099608A604C
:102B40005160086103680133036030BC704703695A
:102B5000416882688A60416851605A68824206D042
:102B6000002202611A68013A1A6018687047826888
:102B70005A60F5E782B0002301930D4B1B68B3F157
:102B8000FF3F08D04FF0500383F31188BFF36F8FDE
:102B9000BFF34F8FFEE74FF0500383F31188BFF36D
:102BA0006F8FBFF34F8F019B002BFCD002B070479B
:102BB0001000002008480068006880F308884FF083
:102BC000000080F3148862B661B6BFF34F8FBFF385
:102BD0006F8F00DF00BF000008ED00E0DFF80C00A1
:102BE000016841F4700101607047000088ED00E069
:102BF0004FF0807340F8043C21F0010140F8081CBC
:102C0000054B40F80C3C40F8202C6FF0020340F8D4
:102C1000243C4438704700BF752B000800000000BA
:102C2000074B19680868B0E8F04F80F30988BFF3D4
:102C30006F8F4FF0000080F311887047AFF3008072
:102C4000205500204FF0500383F31188BFF36F8F9E
:102C5000BFF34F8F0A4A136801331360012B00D072
:102C60007047084B1B6813F0FF0FF9D04FF050036B
:102C700083F31188BFF36F8FBFF34F8FFEE700BF61
:102C80001000002004ED00E0094B1B6843B94FF031
:102C9000500383F31188BFF36F8FBFF34F8FFEE7AD
:102CA000013B034A13600BB983F31188704700BFDF
:102CB00010000020000000000000000000000000E4
:102CC000EFF30980BFF36F8F154B1A681EF0100FDA
:102CD00008BF20ED108A20E9F04F10602DE90900AF
:102CE0004FF0500080F31188BFF34F8FBFF36F8F09
:102CF00001F02EF94FF0000080F3118809BC19682B
:102D00000868B0E8F04F1EF0100F08BFB0EC108A52
:102D100080F30988BFF36F8F704700BFAFF3008067
:102D20002055002008B54FF0500383F31188BFF3FE
:102D30006F8FBFF34F8F00F0D9FF18B1034B4FF0E7
:102D400080521A60002383F3118808BD04ED00E06F
:102D5000084A0023136008490B60084B1B680849A8
:102D6000A1FB03139B09013B06490B60072313607A
:102D7000704700BF10E000E018E000E00400002011
:102D8000D34D621014E000E03A4B1A683A4B9A4275
:102D900029D0384B1A68394B9A422DD010B582B0E1
:102DA000374B1A78D2B20192FF221A701B78DBB22D
:102DB0008DF803309DF8033003F05003314A13704F
:102DC000314B07221A609DF8033013F0800F1CD09E
:102DD0002D4A1368013B13609DF803305B00DBB2A2
:102DE0008DF80330EFE74FF0500383F31188BFF302
:102DF0006F8FBFF34F8FFEE74FF0500383F31188BF
:102E0000BFF36F8FBFF34F8FFEE71F4B1B68032B82
:102E100008D04FF0500383F31188BFF36F8FBFF3D7
:102E20004F8FFEE71B0203F4E063174A1360019B18
:102E3000DBB2134A1370154B1A6842F470021A6021
:102E40001A6842F070421A60FFF782FF0024104BAC
:102E50001C60FFF7C3FE0F4A136843F04043136042
:102E6000FFF7A8FE01F074F8FFF784FE204602B0D9
:102E700010BD00BF00ED00E071C20F4170C20F41F4
:102E800000E400E0F8180020FC18002020ED00E02D
:102E90001000002034EF00E0EFF305830F2B0FD973
:102EA000104A9B5CDBB2104A12789A4208D94FF064
:102EB000500383F31188BFF36F8FBFF34F8FFEE78B
:102EC0000A4B1B6803F4E063094A1268934208D96D
:102ED0004FF0500383F31188BFF36F8FBFF34F8F11
:102EE000FEE77047F0E300E0F81800200CED00E08A
:102EF000FC180020124A12F0070F07D0D11D21F054
:102F00000701C1F5705313440A4601E04FF47053B2
:102F10000C480260002141601344083B23F0070382
:102F20000948036059601960991A51601360074B92
:102F30001960074B1960074B4FF000421A60704749
:102F40000419002018550020001900200C550020FD
:102F5000085500200455002010B4134A00E01A461A
:102F600013688342FBD35168541884420AD04168E5
:102F70004418A3420BD00360904200D010605DF86B
:102F8000044B70474068014451601046EFE7074C1E
:102F90002468A34206D05B681944416013681B682B
:102FA0000360E9E70460E7E71855002000190020F6
:102FB00070B5044600F08CFE3C4B1B68BBB13C4B2B
:102FC0001B681C425AD1ACB1083414F0070F11D061
:102FD00024F00704083404F007035BB14FF05003FA
:102FE00083F31188BFF36F8FBFF34F8FFEE7FFF7B7
:102FF00081FFE4E7002C43D02E4B1B68A3424ED345
:103000002D4B1D6801E02B4615466A68A24202D28C
:103010002A68002AF7D1254A1268AA4241D01E68C0
:1030200008362A681A606B681B1B102B10D92819E8
:1030300010F0070F08D04FF0500383F31188BFF34F
:103040006F8FBFF34F8FFEE743606C60FFF784FF25
:103050006A6818490B689B1A0B60184909688B420B
:1030600001D216490B60124B1B6813436B6000239F
:103070002B60134A13680133136002E0002600E05E
:10308000002600F0C1FE16F0070F0CD04FF05003E1
:1030900083F31188BFF36F8FBFF34F8FFEE70026D6
:1030A000EFE70026EDE7304670BD00BF00190020B5
:1030B0000455002008550020185500200C5500200C
:1030C00010550020002834D038B50446A0F108057A
:1030D00050F8042C174909680A4208D14FF05003F0
:1030E00083F31188BFF36F8FBFF34F8FFEE750F864
:1030F000080C40B14FF0500383F31188BFF36F8F7A
:10310000BFF34F8FFEE722EA010244F8042C00F0DF
:10311000DFFD54F8041C084A13680B44136028466A
:10312000FFF71AFF054A13680133136000F06CFEC5
:1031300038BD704704550020085500201455002064
:1031400010B50446FFF77EFDA26BE36B9A4204D0F4
:103150000024FFF799FD204610BD0124F9E710B5C2
:103160000446FFF76FFDA36B23B90124FFF78CFD25
:10317000204610BD0024F9E770B504461646856B5D
:10318000026C5AB903681BB100200135A56370BDFC
:10319000806801F081F80023A360F6E76EB940680B
:1031A000FDF728F8226C636813446360A2689342B9
:1031B00019D3236863600020E7E7C068FDF71AF8B9
:1031C000226C5242E3681344E36021688B4202D2CE
:1031D000A3681A44E260022E01D00020D5E725B191
:1031E000013D0020D1E70020CFE70020CDE7026CB1
:1031F00072B110B5C3681344C3608468A34201D39D
:103200000368C3600C46C1682046FCF7F3FF10BD9D
:10321000704738B50546FFF715FD95F8454064B28F
:1032200003E001F023F8013C64B2002C08DD6B6A76
:1032300033B105F1240000F041FF0028F3D0F0E79E
:10324000FF2385F84530FFF71FFDFFF7FBFC95F8DE
:10325000444064B203E001F009F8013C64B2002C80
:1032600008DD2B6933B105F1100000F027FF0028BD
:10327000F3D0F0E7FF2385F84430FFF705FD38BDB4
:1032800038B5E0B104460D46FFF7DCFC2168E26B7F
:10329000236C03FB0210A0600020A0636160013A70
:1032A00002FB0313E360FF2384F8443084F84530C5
:1032B000EDB9236963B9FFF7E7FC012038BD4FF092
:1032C000500383F31188BFF36F8FBFF34F8FFEE777
:1032D00004F1100000F0F2FE0028ECD0084B4FF093
:1032E00080521A60BFF34F8FBFF36F8FE3E704F193
:1032F0001000FFF7F9FB04F12400FFF7F5FBDAE714
:1033000004ED00E038B51D46049C0B4649B9246025
:10331000E063236401212046FFF7B2FF84F84C509C
:1033200038BD2260F4E740B94FF0500383F31188B1
:10333000BFF36F8FBFF34F8FFEE710B584B0044625
:1033400053B192B189B94FF0500383F31188BFF3A1
:103350006F8FBFF34F8FFEE74FF0500383F3118859
:10336000BFF36F8FBFF34F8FFEE76AB1502003901A
:103370000398502813D04FF0500383F31188BFF304
:103380006F8FBFF34F8FFEE70029EFD04FF0500350
:1033900083F31188BFF36F8FBFF34F8FFEE7204693
:1033A0001C46039B012384F8463000949DF8183096
:1033B000FFF7A8FF204604B010BD0000F0B585B0AF
:1033C000019278B10446B1B1022B20D1E26B012AFF
:1033D0001DD04FF0500383F31188BFF36F8FBFF3FD
:1033E0004F8FFEE74FF0500383F31188BFF36F8FC9
:1033F000BFF34F8FFEE7026C002AE5D04FF0500379
:1034000083F31188BFF36F8FBFF34F8FFEE71E4624
:103410000F4600F031FF50B9019B53B14FF05003FC
:1034200083F31188BFF36F8FBFF34F8FFEE7002543
:103430003BE0002539E0324639462046FFF79CFE46
:10344000636A6BB938B13C4B4FF080521A60BFF3DE
:103450004F8FBFF36F8FFFF717FC012005B0F0BD52
:1034600004F1240000F02AFE0028F4D0324B4FF083
:1034700080521A60BFF34F8FBFF36F8FEBE7FFF7F8
:1034800003FC0020EAE702A800F0A2FE012519E0F3
:10349000002384F8443021E0002384F8453023E001
:1034A0002046FFF7B6FE00F0AFFCFFF7CBFBA26BA8
:1034B000E36B9A42BFD3022EBDD0019B002BDED01E
:1034C000002DE0D0FFF7E0FB00F002FCFFF7BAFBB5
:1034D00094F844305BB2B3F1FF3FD9D094F8453053
:1034E0005BB2B3F1FF3FD7D0FFF7CEFB01A902A833
:1034F00000F07AFEC8B92046FFF722FE0028CFD0A0
:10350000019904F1100000F077FD2046FFF781FEDD
:1035100000F07AFC0028C8D1074B4FF080521A60A7
:10352000BFF34F8FBFF36F8FBFE72046FFF771FEEA
:1035300000F06AFC002091E704ED00E02DE9F8437B
:1035400078B10446B1B1022B20D1E06B01281DD027
:103550004FF0500383F31188BFF36F8FBFF34F8F8A
:10356000FEE74FF0500383F31188BFF36F8FBFF373
:103570004F8FFEE7006C0028E5D04FF0500383F337
:103580001188BFF36F8FBFF34F8FFEE71F46904642
:103590008946FFF781FCEFF311864FF0500383F368
:1035A0001188BFF36F8FBFF34F8FA26BE36B9A420B
:1035B00006D3022F04D0002086F31188BDE8F883DB
:1035C00094F845506DB2A36B3A4649462046FFF742
:1035D000D3FDB5F1FF3F05D06B1C5BB284F84530DD
:1035E0000120E9E7636A0BB90120E5E704F1240053
:1035F00000F064FD30B1B8F1000F05D00120C8F82B
:103600000000D9E70120D7E70120D5E7F0B585B064
:10361000019280B10446B9B10F4600F02DFEF8B911
:10362000019BFBB14FF0500383F31188BFF36F8F01
:10363000BFF34F8FFEE74FF0500383F31188BFF3C2
:103640006F8FBFF34F8FFEE7036C002BE4D04FF07A
:10365000500383F31188BFF36F8FBFF34F8FFEE7E3
:1036600000263EE000263CE039462046FFF7BFFD3D
:10367000013DA563236923B9FFF706FB012005B0CF
:10368000F0BD04F1100000F019FD0028F4D0354B16
:103690004FF080521A60BFF34F8FBFF36F8FEBE78D
:1036A000FFF7F2FA0020EAE702A800F091FD0126F8
:1036B00021E0002384F8443029E0002384F84530D9
:1036C0002BE02046FFF7A5FD00F09EFB09E0204619
:1036D000FFF79FFD00F098FB2046FFF740FD002814
:1036E0003DD1FFF7AFFAA56B002DBDD1019B002B9B
:1036F000D6D0002ED8D0FFF7C7FA00F0E9FAFFF7CE
:10370000A1FA94F844305BB2B3F1FF3FD1D094F802
:1037100045305BB2B3F1FF3FCFD0FFF7B5FA01A957
:1037200002A800F061FD0028D1D12046FFF717FD67
:103730000028C6D0019904F1240000F05DFC204669
:10374000FFF767FD00F060FB0028CAD1054B4FF082
:1037500080521A60BFF34F8FBFF36F8FC1E7002015
:103760008DE700BF04ED00E00023072B0CD8074ACB
:1037700052F833200AB10133F7E7044A42F8331014
:1037800002EBC30358607047704700BF1C5C002009
:1037900070B504460D461646FFF754FA94F84430C7
:1037A0005BB2B3F1FF3F0DD094F845305BB2B3F19B
:1037B000FF3F0BD0FFF768FAA36B5BB12046FFF722
:1037C00028FD70BD002384F84430EDE7002384F821
:1037D0004530EFE73246294604F1240000F052FC60
:1037E000ECE70000084B1B681B6823B9074B4FF040
:1037F000FF321A607047044B1B68DB68DB685A684D
:10380000024B1A60704700BF24550020C8590020A1
:103810002DE9F04781460D4617469A46089EDDF889
:1038200024800A9C9200A521206B01F085F9236B6E
:1038300007F18042013A03EB820727F00707002DCA
:103840005ED000230F2B06D8EA5CE11881F8342003
:103850000AB10133F6E7002384F84330372E00D94C
:103860003726E662E66400252565201DFFF747F947
:1038700004F11800FFF743F92461C6F13806A66188
:103880006462C4F8805484F884544FF485622946F5
:1038900004F1580001F050F904F55173E36504F5A3
:1038A0006B73236604F21443636601220023C4E9A8
:1038B000402343F20E33A4F808314AF6CD33A4F87E
:1038C0000A3141F23423A4F80C314EF26D63A4F8AE
:1038D0000E314DF6EC63A4F810310523A4F8123133
:1038E0000B23A4F81431524649463846FFF780F9B5
:1038F0002060B8F1000F01D0C8F80040BDE8F087A3
:10390000002384F83430A9E738B50024372C08D8D0
:1039100004EB840293000E481844FFF7E5F80134E5
:10392000F4E70C4D2846FFF7DFF80B4C2046FFF775
:10393000DBF80A48FFF7D8F80948FFF7D5F8094837
:10394000FFF7D2F8084B1D60084B1C6038BD00BF64
:103950002C550020A0590020B4590020D459002033
:10396000005A0020EC590020245500202855002042
:1039700010B50446FFF766F9214A13680133136056
:10398000204B1B685BB1204B1B686BB91D4B1B6840
:10399000DA6AE36A9A4207D81A4B1C6004E0194BB2
:1039A0001C601368012B27D0184A13680133136079
:1039B0006364E36A164A1268934201D9144A136099
:1039C00003EB83039A00211D12481044FFF79AF875
:1039D000FFF75AF90C4B1B686BB10A4B1B68DA6A8C
:1039E000E36A9A4207D20C4B4FF080521A60BFF341
:1039F0004F8FBFF36F8F10BDFFF786FFD4E700BF77
:103A00008C59002020550020E859002098590020AA
:103A10009C5900202C55002004ED00E010B5044610
:103A2000583001F0FBF894F8853463B1012B11D0C4
:103A3000022B0ED04FF0500383F31188BFF36F8F2A
:103A4000BFF34F8FFEE7206BFFF73CFB2046FFF7ED
:103A500039FB10BD2046FFF735FBFAE70F4B1B681B
:103A6000D3B110B5FFF7EEF80D4BDB68DC68201D15
:103A7000FFF76DF80B4A1368013B1360074A1368A0
:103A8000013B1360FFF700F92046FFF7C7FF034B28
:103A90001B68002BE6D110BD704700BF9059002075
:103AA000005A00208C59002008B5FFF7D7FF064BBD
:103AB0001B68012BF9D9054B4FF080521A60BFF3F8
:103AC0004F8FBFF36F8FF0E72C55002004ED00E01F
:103AD00070B504460E46174B1D68174B1868043026
:103AE000FFF735F8B4F1FF3F0DD02C44124B1B68A3
:103AF0005C60A54210D9114B18680F4B196804314E
:103B0000FFF70BF870BD002EEFD00B4B1968043196
:103B10000B48FEF7F7FFF5E70A4B1868064B1968E4
:103B20000431FEF7FAFF084B1B68A342EAD9064BA3
:103B30001C60E7E7145A002020550020285500207B
:103B4000EC59002024550020C859002070B586B0DB
:103B50000B9D0C9C85B1C4B14FF491660496049EF4
:103B6000B6F5916F1AD04FF0500383F31188BFF36D
:103B70006F8FBFF34F8FFEE74FF0500383F3118831
:103B8000BFF36F8FBFF34F8FFEE74FF0500383F308
:103B90001188BFF36F8FBFF34F8FFEE7049E25633D
:103BA000022584F8855400250395029405AD0195FE
:103BB0000A9D0095FFF72CFE2046FFF7D9FE0598D9
:103BC00006B070BD2DE9F04385B00746884615461E
:103BD00099469000FFF7ECF900B306464FF4916068
:103BE000FFF7E6F90446A8B10663E4B1002384F8C0
:103BF0008534039302940D9B01930C9B00934B46D9
:103C00002A4641463846FFF703FE2046FFF7B0FE3E
:103C1000012005E03046FFF755FAE6E74FF0FF30A8
:103C200005B0BDE8F0834FF0FF30F9E710B588B07C
:103C300000240594069407AA06A905A8FEF71EFE0F
:103C4000059B0293069B019300942346079A19490A
:103C50001948FFF77BFF40B100F0DEFB012806D0DA
:103C6000B0F1FF3F1DD008B010BD0020F6E74FF0C7
:103C7000500383F31188BFF36F8FBFF34F8F0F4B48
:103C80001B6858330E4A13600E4B4FF0FF321A6018
:103C90000D4B01221A600D4B00221A60FFF774F8D9
:103CA000E1E74FF0500383F31188BFF36F8FBFF349
:103CB0004F8FFEE7089A0008A93A00082055002017
:103CC00014000020C8590020E8590020145A002090
:103CD000024A136801331360704700BF94590020F3
:103CE000014B1868704700BF145A0020F8B53B4BD1
:103CF0001B68002B6AD13A4B1D6801351D60C5B9A0
:103D0000384B1B681B6843B14FF0500383F3118895
:103D1000BFF36F8FBFF34F8FFEE7324A1168324B0C
:103D2000186810601960314A136801331360FFF797
:103D300059FD2F4B1B68AB4211D900242D4B1B683A
:103D4000DB6A03EB83039A002B4B9B58012B00D9B2
:103D500001242A4B1B68002B3DD001243BE00024AA
:103D600016E0234B4FF0FF321A60E7E7204A13605A
:103D7000E4E703EB83039A0039461F481044FEF73B
:103D8000C1FEF26A1B4B1B68DB6A9A4200D3012416
:103D9000144B1B681B68002BE3D0124B1B68DB68BD
:103DA000DE6873689D42E1D3371D3846FEF7CFFECB
:103DB000B36A1BB106F11800FEF7C9FEF36A104A98
:103DC00012689342D5D90E4A1360D2E70D4A1368A0
:103DD0000133136000242046F8BD00BF9459002031
:103DE000145A00202455002028550020CC590020CA
:103DF000C8590020205500202C550020185A0020BA
:103E00009C590020D059002038B5354B1B6843B968
:103E10004FF0500383F31188BFF36F8FBFF34F8FC1
:103E2000FEE7FEF70FFF2E4B1A68013A1A601B6877
:103E3000002B4DD12B4B1B680BB9002449E000240B
:103E4000294B1B681BB3284BDB68DC6804F11800A6
:103E5000FEF77DFE251D2846FEF779FEE36A234A1C
:103E60001268934201D9214A136003EB83039A003D
:103E700029461F481044FEF745FEE26A1D4B1B68A9
:103E8000DB6A9A42DCD31C4B01221A60D8E70CB1E2
:103E9000FFF7A8FC194B1C6874B9174B1B68E3B1FA
:103EA000174B4FF080521A60BFF34F8FBFF36F8FE5
:103EB00001240EE0013C07D0FFF718FF0028F9D0DD
:103EC0000D4B01221A60F5E70C4B00221A60E4E763
:103ED0000024FEF7D9FE204638BD0024F9E700BFD4
:103EE000945900208C590020D45900209C5900205E
:103EF0002C55002020550020185A0020D0590020B1
:103F000004ED00E010B5A8B104460F4B1B6843B1A7
:103F10004FF0500383F31188BFF36F8FBFF34F8FC0
:103F2000FEE7FFF7D5FE00212046FFF7D1FDFFF7A2
:103F30006BFF38B9054B4FF080521A60BFF34F8FBB
:103F4000BFF36F8F10BD00BF9459002004ED00E057
:103F5000234B1B681BB1234B01221A607047214B76
:103F600000221A60204B1B6803EB83018A001F4963
:103F70008A585AB90BB1013BF6E74FF0500383F36F
:103F80001188BFF36F8FBFF34F8FFEE710B4084661
:103F90009A00D418A10001444C6864684C601A442B
:103FA000910008310844844211D003EB8302910050
:103FB0000E4A0A445268D1680D4A11600A490B60E2
:103FC000136858330B4A13605DF8044B7047606800
:103FD00003EB83029100054A0A445060E5E700BF05
:103FE00094590020185A00209C5900202C5500207C
:103FF000205500201400002058B110B50C46094B84
:1040000019681831FEF789FD01212046FFF760FD90
:1040100010BD4FF0500383F31188BFF36F8FBFF3D0
:104020004F8FFEE72055002060B10346134800681B
:1040300088B94FF0500383F31188BFF36F8FBFF33C
:104040004F8FFEE74FF0500383F31188BFF36F8F5C
:10405000BFF34F8FFEE710B5184614460B46084ACB
:10406000116843F000438B6111681831FEF74AFD77
:1040700001212046FFF72CFD10BD00BF9459002000
:104080002055002038B570B10C4615460A4A116813
:104090001831FEF737FD0DB14FF0FF3429462046A9
:1040A000FFF716FD38BD4FF0500383F31188BFF3BF
:1040B0006F8FBFF34F8FFEE72055002038B5C368E0
:1040C000DC6824B304F118052846FEF740FD184BC0
:1040D0001B682BBB251D2846FEF739FDE36A154AF0
:1040E0001268934201D9134A136003EB83039A00C9
:1040F000294611481044FEF705FDE26A0F4B1B6884
:10410000DB6A9A4211D901200D4B18600EE04FF086
:10411000500383F31188BFF36F8FBFF34F8FFEE718
:1041200029460848FEF7EEFCE7E7002038BD00BF4F
:10413000945900209C5900202C5500202055002027
:10414000185A0020D459002038B51C4B1B6843B9BD
:104150004FF0500383F31188BFF36F8FBFF34F8F7E
:10416000FEE741F000410160C468F4B1FEF7EFFCE6
:10417000251D2846FEF7EBFCE36A114A12689342BC
:1041800001D90F4A136003EB83039A0029460D48B7
:104190001044FEF7B7FCE26A0B4B1B68DB6A9A42DD
:1041A00002D90A4B01221A6038BD4FF0500383F345
:1041B0001188BFF36F8FBFF34F8FFEE79459002034
:1041C0009C5900202C55002020550020185A002012
:1041D000034B1B680360034B1B684360704700BFC1
:1041E000CC590020145A0020F8B5C8B1054601B3D7
:1041F0000C46FEF727FD1B4B19686B68C81A22682E
:10420000B2F1FF3F26D02F68174E3668B74201D073
:104210008B4224D9824215D80023236001241AE05E
:104220004FF0500383F31188BFF36F8FBFF34F8FAD
:10423000FEE74FF0500383F31188BFF36F8FBFF396
:104240004F8FFEE75B1A134423602846FFF7C0FF39
:10425000002400E00024FEF717FD2046F8BD0124ED
:10426000F9E700BF145A0020CC590020014B01226D
:104270001A607047185A0020054B1B6833B1054B74
:104280001B680BB100207047022070470120704767
:10429000E85900209459002000283BD038B5044646
:1042A0001E4A1268824208D04FF0500383F31188EF
:1042B000BFF36F8FBFF34F8FFEE7026D42B94FF030
:1042C000500383F31188BFF36F8FBFF34F8FFEE767
:1042D000013A0265C06AE16C88421DD00AB1002033
:1042E00038BD251D2846FEF732FCE36CE362C3F1BE
:1042F0003802A2610A4A1268934201D9084A13603F
:1043000003EB83039A00294606481044FEF7FAFBA4
:104310000120E5E7002070470020E1E7205500205C
:104320009C5900202C550020044A13689869136892
:10433000DB6A1268C3F1380393617047205500208F
:10434000064B1A6813682BB90123036023B9D3689D
:10435000186870470023F8E7002070471C5A0020B7
:1043600008B54160006191420CD8D21A83699A4223
:1043700001D3012008BD011D094B1868FEF7CDFBD4
:104380000020F7E79A4201D2994206D2011D054B5F
:104390001868FEF7C2FB0020ECE70120EAE700BF47
:1043A000205A00201C5A002030B583B0FEF74AFC8A
:1043B000114B1B681BB1FEF767FC03B030BD0F4DFE
:1043C0002846FEF791FB0E4C2046FEF78DFB0D4B69
:1043D0001D600D4B1C60002300930C4B0C4A1021F8
:1043E0000A20FEF7A0FF044B18600028E3D009491B
:1043F000FFF7BAF9DFE700BF405B0020C45A002096
:10440000D85A00201C5A0020205A0020F05A0020C0
:10441000245A0020109A000810B588B0FFF7C4FF96
:10442000124B1B68CBB100240594069407AA06A979
:1044300005A8FEF72FFA059B0293069B0193022322
:1044400000932346079A0A490A48FFF77FFB0A4B65
:10445000186010B1012008B010BD4FF0500383F375
:104460001188BFF36F8FBFF34F8FFEE7405B0020D3
:10447000189A000881470008445B0020C0B130B59D
:1044800085B015460446174A106840B31A46009195
:104490000195029405291CDCFFF7EEFE022810D0DE
:1044A00000231A4669460F480068FEF787FF14E0AC
:1044B0004FF0500383F31188BFF36F8FBFF34F8F1B
:1044C000FEE70023089A694606480068FEF776FF73
:1044D00003E000236946FFF731F805B030BD002046
:1044E000FBE700BF405B002070B582B01B4B1B6830
:1044F0001A6862B3DB681E68DC68251D2846FEF773
:1045000026FB236A2046984794F8283013F0040FBE
:10451000ECD0A36933449E4207D2636024612946EC
:104520000E4B1868FEF7F9FAE0E7002100910B4600
:1045300032462046FFF7A2FF0028D7D14FF05003A4
:1045400083F31188BFF36F8FBFF34F8FFEE7044AE9
:10455000106802490860136002B070BD1C5A002048
:10456000205A002038B50546FFF7BAFB0446074B32
:104570001B68834205D800232B60044B1C60204637
:1045800038BDFFF7B1FF01232B60F6E7EC5A00209E
:1045900070B582B005460E46174B1B68DB68DC68B9
:1045A000201DFEF7D4FA94F8283013F0040F08D138
:1045B00023F0010384F82830236A2046984702B08C
:1045C00070BDA1692B46324629442046FFF7C8FE3C
:1045D0000028F1D0002100910B462A462046FFF723
:1045E0004DFF0028E8D14FF0500383F31188BFF34B
:1045F0006F8FBFF34F8FFEE71C5A002070B582B05B
:1046000006460C46FFF764FB01A8FFF7ABFF019BD2
:1046100023BB05460CB9B04217D224B1114B1B681D
:104620001B68CBB901242246711B0F4B1868FFF79A
:10463000AFF8FFF7E9FB98B90C4B4FF080521A60C6
:10464000BFF34F8FBFF36F8F0AE0FFF7DDFB294603
:104650003046FFF79DFF03E00024E4E7FFF7D4FBBB
:1046600002B070BD205A0020405B002004ED00E045
:1046700030B589B006E007990698059B9847049BDA
:10468000002B0BDA002204A93C4B1868FEF7BEFF92
:10469000002870D0049B002BF1DAECE7069C6369DC
:1046A00013B1201DFEF753FA03A8FFF75BFF049B2D
:1046B000092BE7D8DFE803F005050531385105057A
:1046C000313894F8283043F0010384F828300599F4
:1046D000A5690B46024629442046FFF741FE002803
:1046E000D0D0236A2046984794F8283013F0040F5E
:1046F000C8D0A269002100910B46059802442046CB
:10470000FFF7BCFE0028BDD14FF0500383F31188A2
:10471000BFF36F8FBFF34F8FFEE794F8283023F07D
:10472000010384F82830ADE794F8283043F0010302
:1047300084F828300599A16131B10346024601444D
:104740002046FFF70DFE9DE74FF0500383F31188DD
:10475000BFF36F8FBFF34F8FFEE794F8283013F04D
:10476000020F04D023F0010384F828308AE72046A2
:10477000FEF7A8FC86E709B030BD00BF405B002013
:1047800000B583B001A8FFF7DBFD0199FFF736FF05
:10479000FFF76EFFF6E7000010B584B01C466FF01F
:1047A000010300930190029103920023224669467F
:1047B00002480068FEF7C2FE04B010BD405B002056
:1047C000DFF834D00D480E490E4A002302E0D458D9
:1047D000C4500433C4188C42F9D30B4A0B4C002349
:1047E00001E013600432A242FBD3FCF749FE00F063
:1047F0007FF9FCF729FD704700000220000000202F
:10480000C0090020BC9C0008C0090020845C002076
:10481000FEE700002DE9F047089E04468846002B7D
:1048200040F085808A42154648D9B2FA82F24AB1F0
:10483000C2F1200701FA02F320FA07F7954047EA90
:10484000030894404FEA154E230CB8FBFEF71FFAFD
:1048500085FC0EFB178843EA084307FB0CF19942DD
:1048600009D9EB1807F1FF3080F0E380994240F25C
:10487000E080023F2B445B1AA4B2B3FBFEF00EFBB8
:10488000103344EA034400FB0CFCA44509D92C195D
:1048900000F1FF3380F0CB80A44540F2C88002389D
:1048A0002C4440EA0740A4EB0C0400271EB1D4407E
:1048B0000023C6E900433946BDE8F087002A53D0FB
:1048C000B2FA82F2002A40F0B680491B4FEA154E38
:1048D0001FFA85F80127B1FBFEFC230C0EFB1C110F
:1048E00043EA014308FB0CF1994207D9EB180CF19C
:1048F000FF3002D2994200F2EC808446591AA3B2EA
:10490000B1FBFEF00EFB101443EA044408FB00F870
:10491000A04507D92C1900F1FF3302D2A04500F2BF
:10492000DC801846A4EB080440EA0C40BEE78B424A
:1049300008D9002E78D00027C6E90001384639464C
:10494000BDE8F087B3FA83F77FB98B4202D3824286
:1049500000F2BD80841A61EB030301209846002E0B
:10496000A9D0C6E90048A6E7FFDEC7F12005BB4095
:1049700022FA05FC4CEA030C01FA07F420FA05F8C8
:1049800021FA05F34FEA1C4E48EA0404B3FBFEF992
:10499000210C0EFB19331FFA8CF841EA034309FB83
:1049A00008FA9A4502FA07F200FA07F10BD91CEB54
:1049B000030309F1FF3080F088809A4540F285803A
:1049C000A9F102096344A3EB0A03A4B2B3FBFEF00E
:1049D0000EFB103344EA034400FB08F8A04508D955
:1049E0001CEB040400F1FF336BD2A04569D90238F7
:1049F000644440EA0940A4EB0804A0FB02894C454A
:104A0000C6464B4654D351D0002E69D0B1EB0E02AE
:104A100064EB030404FA05F522FA07F3FC401D4396
:104A2000C6E90054002746E73746304643E71846B4
:104A300037E707461FE7C2F1200320FA03F7954046
:104A400001FA02F021FA03F34FEA154E3843010C44
:104A5000B3FBFEF71FFA85F80EFB173341EA03415B
:104A600007FB08F38B4204FA02F407D9691807F12F
:104A7000FF3C28D28B4226D9023F2944CB1A81B26F
:104A8000B3FBFEF00EFB103341EA034100FB08F3D9
:104A90008B4207D9691800F1FF3C10D28B420ED926
:104AA00002382944C91A40EA074714E74145ABD206
:104AB000B8EB020E69EB0C0201381346A4E760461E
:104AC000F0E7184695E76746D8E781467BE7384622
:104AD00045E7ACF1020C2B4410E702382C4421E7E7
:104AE0003746E8E6014B1868704700BF1400002005
:104AF00070B50D4E0D4D761BB61006D00024013456
:104B000055F8043B9847A642F9D1094E094D761B4A
:104B100004F022FFB61006D00024013455F8043BFF
:104B20009847A642F9D170BDB09C0008B09C00081F
:104B3000B89C0008B09C0008F0B4860746D0541E0C
:104B4000002A3CD0CAB2034602E014F1FF3436D347
:104B500003F8012B9D07F8D1032C29D9CDB245EAE2
:104B600005250F2C45EA054533D9A4F11006360971
:104B700003F1200707EB061703F1100242E9045581
:104B800042E902551032BA42F8D1721C14F00C0FEF
:104B900003EB021204F00F0613D0331F23F00303BC
:104BA0000433134442F8045B9342FBD106F0030440
:104BB0002CB1C9B21C4403F8011B9C42FBD1F0BCD0
:104BC000704734461346002CF3D1F8E714460346E9
:104BD000C2E71A462646E0E70FB400B5074983B09E
:104BE00004AB086853F8042B8168019300F05CF86B
:104BF00003B05DF804EB04B0704700BF1400002060
:104C000038B50C460968054609B1FFF7F9FF21469A
:104C10002846BDE8384003F00BB800BF204B1B68A6
:104C200083423BD0C36C70B505468BB100269959C1
:104C300039B10C68284602F0FBFF2146002CF8D160
:104C4000EB6C0436802EF2D11946284602F0F0FFB4
:104C5000296C11B1284602F0EBFFD5F8481151B18B
:104C600005F5A676B14206D00C68284602F0E0FFB2
:104C7000A6422146F8D1696D11B1284602F0D8FF4D
:104C8000AB6B53B1EB6B28469847D5F8E01221B1D6
:104C90002846BDE87040FFF7B3BF70BD704700BF46
:104CA00014000020000000002DE9F04FD9B01C4690
:104CB000894617460546099003F0DAF80368199308
:104CC0001846FBF79DFB0C9417901DB1AB6B002BA6
:104CD00000F01184D9F86410B9F90C20CD0793B213
:104CE00002D4980540F1548799040AD4D9F8641085
:104CF00042F4005321F40051A9F80C30C9F86410B3
:104D00009BB21A0740F1BF80D9F81020002A00F0AA
:104D1000BA8003F01A020A2A00F0C38000239FED34
:104D20009C7B1693CDE92D3318931A93CDE91C3350
:104D30001B9308932FAB2C939B463B78CDF82C907C
:104D40008DED147B002B00F06782252B01F0AE80E7
:104D50003D4603E0252B00F0BB8025466B786C1C9C
:104D6000002BF7D1E61B00F05782DDE92D3201332D
:104D70003244072BCBF80070CBF80460CDE92D321C
:104D800000F3AA800BF1080B089A6B783244089262
:104D9000002B00F04182002394F801800A938DF8E3
:104DA0009330069304F1010A4FF0FF392B2620219E
:104DB0000AF1010AA8F120035A2B00F2A183DFE8CF
:104DC00013F082029F039F037B029F039F039F03B5
:104DD00001039F039F03F602DF009F03C4002B0320
:104DE0009F03240396009600960096009600960076
:104DF0009600960096009F039F039F039F039F03C7
:104E00009F039F0345039F03A801620145034503D8
:104E100045039F039F039F039F035B019F039F0322
:104E20004E019F039F039F0323019F0315019F03CF
:104E30009F03CB009F039F039F039F039F039F0339
:104E40009F039F0345039F03A801EF00450345030C
:104E500045037002EF005B009F03EB029F03D1024A
:104E6000BD028C025B009F0323015F0087039F0349
:104E70009F03A5009F035F00069B43F0200306935A
:104E80009AF8008094E74946099801F0FFFC002851
:104E900041F08683B9F80C3003F01A020A2A7FF435
:104EA0003DAFB9F90E20002AFFF638AFD9F86420DB
:104EB000D60702D49D0541F1928123463A464946E0
:104EC000099801F0A1FC0890089859B0BDE8F08F4E
:104ED000E61B3FF460AF48E72CAA0B99099803F052
:104EE0001BFF002841F02C840DF1BC0B4CE7A8F10E
:104EF000300300221AF8018B02EB820203EB42021C
:104F0000A8F13003092BF5D90A9253E7224B1893E5
:104F1000069B9F0625D50C9C073424F00703F3E875
:104F200002450C93069AD1070AD554EA050307D027
:104F3000302342F002028DF8958006928DF894306D
:104F4000069B23F480660223D9E19AF80080069B31
:104F500043F0040306932BE7104B1893069B9F0620
:104F6000D9D40C9B53F8044B0C93069BDE0600F13E
:104F70004F86069B5D0640F14786A4B20025D1E727
:104F80008DF893609AF8008012E700BFAFF30080BD
:104F90000000000000000000489A0008349A000851
:104FA000069EB00640F10E870C9C073424F00703E0
:104FB0001946F1E802230C9114461D46002A73F1AC
:104FC000000371DBB9F1FF3F00F0C58226F08003DA
:104FD000069354EA050340F0BD82B9F1000F41F099
:104FE00010814FF000094E4658AFBFE2069B9D0668
:104FF00043F0100600F18F820C9B1A1D0C9B0C9243
:105000001C68002501237AE10C9C54F8047B0025E0
:105010008DF89350002F00F03A87B9F1FF3F00F070
:10502000BF874A4629463846FBF782F90D9000288B
:1050300001F04F820D9BA946DE1BCDE9129926EAAD
:10504000E6739DF893200C940793CDF83490CDF837
:105050004090002A6FD0079B013307936BE0069BBB
:105060009C0643F0100600F15F820C9B1A1D0C9BFE
:105070000C921C6800255EE2069B9AF8008043F0C3
:105080000803069394E6069B9C0643F010068BD417
:105090000C9B1A1D0C9B0C921C68E51722462B4694
:1050A000002A73F100038DDA64424FF02D0365EBA3
:1050B0004505B9F1FF3F8DF893304FF0010340F003
:1050C0002581012B00F04782022B00F0798458A93A
:1050D00000E03946E20842EA4572E80804F00703B6
:1050E00005461446303354EA050201F8013C01F14B
:1050F000FF37EED1F20740F18882302B00F0858235
:105100003023023907F8013C58AB06960F465E1A69
:105110002CE20C9C002354F8042B8DF8FC20012673
:105120001A4607960C94CDE912228DF893300D9211
:10513000914610923FAF069B13F002030E9302D0EC
:10514000079B02330793069B2E9C13F084030F9357
:1051500004D10A9B07995D1A002D66DC72B12D9A65
:10516000013201340DF193000121072ACDE92D24EC
:10517000CBE9000100F3B1830BF1080B0E9B6BB17F
:105180002D9B0133023425A90222072BCDE92D34B2
:10519000CBE9001200F3AD830BF1080B0F9B802BC2
:1051A00000F09582A9EB0605002D00F3D382069B43
:1051B000DB0500F12E822D9BCBF8007001333444C7
:1051C000072B2E94CBF804602D9300F325830BF16D
:1051D000080B069B5D0705D50A9B079A9D1A002DB3
:1051E00000F3AE83089B0A9A07998A42ACBF9B18CA
:1051F0005B180893002C40F0E78200232D930D9B51
:105200001BB10D99099802F013FD0DF1BC0B574627
:105210003B78002B7FF499AD2E9BDDF82C90002B72
:1052200040F0F88600232D9375E3102D2D9A29DD8B
:105230005946204622961023099C0B9EBB4604E04B
:10524000103D102D01F1080118DD0132BC4F103066
:10525000072ACDE92D20C1E90073F1DD2CAA3146E2
:10526000204603F059FD002840F04F83103D102DDB
:10527000DDE92D202FA94FF01003E6DC229E5F46CA
:1052800004468B460132AE4B2C44072ACDE92D242F
:10529000CBE9003500F32D860BF1080B9DF8932028
:1052A0005CE79AF80080069BB8F1680F00F0E6858D
:1052B00043F0400306937BE5069B9AF8008043F099
:1052C0000103069374E59DF893309AF80080002B53
:1052D0007FF46EAD8DF893106AE50C9C47F63002B2
:1052E00054F8043BADF89420069A0C941C46954B58
:1052F000189342F00206002502234FF0780800229E
:10530000B9F1FF3F8DF893203FF4DBAE26F0800229
:10531000069254EA050240F0DD82B9F1000F40F038
:105320004883002B7FF45DAE16F0010600F06A841E
:1053300030238DF85F310DF25F1717E1069EB0063E
:1053400000F1F280069B0C9AD90652F8044B01F149
:105350004882069E33465B0640F138860C92A4B222
:105360000025E8E006990C9A890602F1040300F191
:105370005284069AD70600F1E485069A560600F193
:105380006886069A950540F1DC850C9A0C931268A4
:10539000089B137057463BE79AF80080069BB8F1CC
:1053A0006C0F00F0628543F01003069300E50C9B40
:1053B0009AF8008053F8042B0A92002AC0F216854E
:1053C0000C93F5E4099D284602F052FD43681B93B7
:1053D0001846FBF715F81D900446284602F048FDD4
:1053E00083681C932021002C3FF44AAD1C9B9AF843
:1053F0000080002B3FF4DCAC1B78002B3FF4D8ACD2
:10540000069B43F480630693D2E4069B9AF80080DF
:1054100043F080030693CBE4524612F8018BB8F1B7
:105420002A0F01F0C381A8F13003092B92464FF0F7
:1054300000093FF6BFAC1AF8018B09EB890903EBB1
:105440004909A8F13003092BF5D9B3E40C9C0734C2
:1054500024F00703B3EC027B55EC174B0C9325F0BB
:1054600000431F938DED1E7ADDE91E014FF0FF32E0
:10547000354B8DED147BFBF787FC002840F0DC8377
:105480004FF0FF32304BDDE91E01FBF75FFC0028D7
:1054900040F0D2830022002320462946FBF74CFC33
:1054A000002840F082879DF89320284F284B0698CB
:1054B0000021032620F0800007960D910690B8F198
:1054C000470FC8BF1F4689461091CDE91211C0E5AC
:1054D000069EB4061FD4069B0C9AD80652F8044BBD
:1054E00001F17981069E710640F17A850C92A4B291
:1054F0000025012303E7099802F0FAFAFFF7EABB57
:10550000B8F1000F3FF488AE002301261A46079633
:105510008DF8FC8007E60C9C073424F00703F3E8C1
:1055200002450C930123EAE60C9C073424F00703A0
:10553000F3E802450C9326F480660023DFE600BF03
:10554000689A0008489A0008FFFFEF7F249A000835
:10555000289A0008069E002D08BF0A2C13D230346A
:1055600006968DF85F4101260DF25F1700234E4528
:105570000D931093CDE912333346B8BF4B469DF8D7
:105580009320079365E506F480630022CDE906A821
:10559000CDF834B058AFCB469246B146DDF87080B6
:1055A0001E4607E0FAF70CFE002D08BF0A2C20D398
:1055B00004460D460A22002320462946FAF700FE3B
:1055C00002F1300C07F801CC204629460A220023BC
:1055D0000AF1010A013F002EE4D098F800C0E2452C
:1055E000E0D1BAF1FF0FDDD09D4208BF944280F0B8
:1055F0002087CDF858A04E46CDF87080D946DDF80A
:1056000018A0DDF81C80DDF834B0069658ABDE1B20
:10561000ACE7B8F1650F40F30A8100220023DDE911
:105620001401FBF77FFB002800F0DE812D9BC24AAE
:10563000CBF80020013301340122072BCDE92D34B2
:10564000CBF8042000F366840BF1080B269B169A16
:105650002E9C934280F2A5822D9B199ACBF80020B4
:10566000179ACBF8042001331444072BCDE92D34CD
:1056700000F3EF830BF1080B169B5D1E002D7FF7E7
:10568000A8AD102D2D9AAD4B40F351841026099FE3
:10569000DDF82C80994605E00BF1080B103D102D2C
:1056A00040F3448401321034072ACDE92D24CBE99C
:1056B0000096F1DD2CAA4146384603F02DFB002868
:1056C00040F02684DDE92D240DF1BC0BE6E70A9BB2
:1056D000079A9D1A002D7FF765AD102D2D9A974BD7
:1056E00028DD0E9659462046BB46099C0B9E1F4658
:1056F00004E0103D102D01F1080116DD01321030DB
:105700001023072ACDE92D200F604B60F1DD2CAA74
:105710003146204603F000FB002840F0F680103DA3
:10572000102DDDE92D202FA9E8DC0E9E3B46044616
:105730005F468B4601322C44072ACDE92D24CBE964
:10574000003500F35883A9EB0605002D0BF1080B7B
:105750007FF72DAD102D2D9A784B29DD0E965946E9
:105760002046BB464FF01009099C0B9E1F4604E0E3
:10577000103D102D01F1080115DD01321030072A0E
:10578000CDE92D20C1E90079F2DD2CAA3146204671
:1057900003F0C2FA002840F0B880103D102DDDE97A
:1057A0002D202FA9E9DC0E9E3B4604465F468B4622
:1057B00001322C44072ACDE92D24CBE9003500F332
:1057C000DA810BF1080BF2E42CAA0B99099803F08B
:1057D000A3FA00283FF411ADDDF82C9096E02D9A45
:1057E0001999CBF800101799CBF8041001320C442A
:1057F000072A2E942D9200F3E3840BF1080B002B63
:10580000C0F2A786169B01321C44072ACDE92D243D
:10581000CBE900737FF7DBAC2CAA0B99099803F056
:105820007BFA0028D8D12E9C0DF1BC0BD1E4169A3E
:105830002D9B012A04F1010403F101050BF1080677
:1058400040F358810123072DCBF80070CDE92D548A
:10585000CBF8043000F32D83179B199A691C1C4464
:1058600007290F91CDE92D14C6E9002300F32D83FC
:1058700008360F9A169D02F1010900230022DDE986
:105880001401CDF8389006F1080B05F1FF38FBF74D
:1058900049FA002840F041810E9BC6F80480013788
:1058A0004444072B37602E942D9300F3C2820F9A45
:1058B00006F1100302325E460E929B461A9A7260FF
:1058C00014440E9A2E9428AB072A2D9233607FF74A
:1058D00080ACA1E7069EFFF7F4BB2CAA0B990998B0
:1058E00003F01AFA00287FF477AF2E9C0DF1BC0B61
:1058F00044E42CAA0B99099803F00EFA00287FF4CF
:105900006BAF2E9C0DF1BC0B48E4B1460D9911B163
:10591000099802F08DF9D9F86420B9F80C30D40751
:1059200002D4980540F1DE82590600F145860898B8
:1059300059B0BDE8F08F00BF649A0008789A00085B
:10594000102D2D9B21DD1026099FDDF82C8004E011
:10595000103D102D0BF1080B17DD0133B34A103445
:10596000072BCDE92D34CBE90026F1DD2CAA4146E9
:10597000384603F0D1F9002840F0CA82103D102DBE
:10598000DDE92D340DF1BC0BE7DC0133A74A2C44D3
:10599000072BCDE92D34CBE900257FF723AC2CAACA
:1059A0000B99099803F0B8F900287FF415AF2E9CE5
:1059B00018E4012B00F02584022B069E7FF487ABB0
:1059C000189858AF230904F00F0143EA05732A0918
:1059D0001C461546435C07F8013D54EA0503F1D126
:1059E00058AB0696DE1BC1E5269B002B40F3DF80FB
:1059F000129B169A9342A8BF1346002B1D460DDD3D
:105A00002D9BCBF8007001332C44072B2E94CBF840
:105A100004502D9300F300850BF1080B129B002D11
:105A2000A8BF5B1B002B1D4600F39382129B3B44D7
:105A30009946069B580500F11584269B169A9342B9
:105A400003DB069AD10740F1FB822D9A1999CBF816
:105A500000101799CBF8041001320C44072A2E9439
:105A60002D9200F328850BF1080B169ABD18A5EBB3
:105A70000905D31A9D42A8BF1D46002D0DDD2D9AA4
:105A8000CBF8009001322C44072A2E94CBF8045016
:105A90002D9200F34B850BF1080B002DACBF5D1B65
:105AA0001D46002D7FF795AB102D2D9A604B40F3CE
:105AB0003E821026099FDDF82C80994605E00BF107
:105AC000080B103D102D40F3318201321034072AAB
:105AD000CDE92D24CBE90096F1DD2CAA41463846CC
:105AE00003F01AF9002840F01382DDE92D240DF1AE
:105AF000BC0BE6E7069AD2073FF5A4AE0122072DBC
:105B0000CBF80070CDE92D54CBF8042000F391813F
