:020000040800F2
:1000000000000220153C0008A9090008AB090008FF
:10001000AD090008AF090008B109000800000000A0
:10002000000000000000000000000000811F000828
:10003000B30900080000000021200008B5090008ED
:10004000653C0008653C0008653C0008653C00080C
:10005000653C0008653C0008653C0008653C0008FC
:10006000653C0008653C0008653C0008653C0008EC
:10007000653C0008653C0008653C0008653C0008DC
:10008000653C0008653C0008653C0008653C0008CC
:10009000653C0008653C0008653C0008653C0008BC
:1000A000653C0008653C0008653C0008653C0008AC
:1000B000653C0008653C0008653C0008653C00089C
:1000C000653C0008653C0008653C0008653C00088C
:1000D000653C0008653C0008653C0008653C00087C
:1000E000653C0008653C0008653C0008653C00086C
:1000F000653C0008653C0008653C0008653C00085C
:10010000653C0008653C0008653C0008653C00084B
:10011000653C0008653C0008653C0008653C00083B
:10012000653C0008653C0008653C0008653C00082B
:10013000653C00080000000000000000653C00086D
:10014000653C0008653C0008653C0008653C00080B
:10015000653C0008653C0008653C0008653C0008FB
:10016000653C0008653C0008653C0008653C0008EB
:10017000653C0008653C000800000000000000002D
:08018000653C0008653C000825
:1001C00053B94AB9002908BF00281CBF4FF0FF31BE
:1001D0004FF0FF3000F00CB8ADF1080C6DE904CE23
:1001E00003F042FDDDF804E0DDE9022304B07047CE
:1001F000704700BF844641EA000313F003036DD14A
:10020000403A41D351F8043B40F8043B51F8043BD9
:1002100040F8043B51F8043B40F8043B51F8043BE0
:1002200040F8043B51F8043B40F8043B51F8043BD0
:1002300040F8043B51F8043B40F8043B51F8043BC0
:1002400040F8043B51F8043B40F8043B51F8043BB0
:1002500040F8043B51F8043B40F8043B51F8043BA0
:1002600040F8043B51F8043B40F8043B51F8043B90
:1002700040F8043B51F8043B40F8043B51F8043B80
:1002800040F8043B403ABDD2303211D351F8043B20
:1002900040F8043B51F8043B40F8043B51F8043B60
:1002A00040F8043B51F8043B40F8043B103AEDD2CF
:1002B0000C3205D351F8043B40F8043B043AF9D220
:1002C000043208D0D2071CBF11F8013B00F8013BF3
:1002D00001D30B8803806046704700BF082A13D300
:1002E0008B078DD010F003038AD0C3F10403D21A18
:1002F000DB071CBF11F8013B00F8013B80D331F84C
:10030000023B20F8023B7BE7043AD9D3013A11F8CB
:10031000013B00F8013BF9D20B7803704B78437036
:100320008B7883706046704700000000000000007A
:1003300000000000000000000000000000000000BD
:1003400090F800F06DE9024520F007016FF0000C15
:1003500010F0070491F820F040F049804FF00004BD
:100360006FF00700D1E9002391F840F000F1080098
:1003700082FA4CF2A4FA8CF283FA4CF3A2FA8CF3D0
:100380004BBBD1E9022382FA4CF200F10800A4FA37
:100390008CF283FA4CF3A2FA8CF3E3B9D1E904238B
:1003A00082FA4CF200F10800A4FA8CF283FA4CF3C2
:1003B000A2FA8CF37BB9D1E9062301F1200182FA7C
:1003C0004CF200F10800A4FA8CF283FA4CF3A2FA82
:1003D0008CF3002BC6D0002A04BF04301A4612BA90
:1003E000B2FA82F2FDE8024500EBD2007047D1E993
:1003F000002304F00305C4F100004FEAC50514F022
:10040000040F91F840F00CFA05F562EA05021CBFF2
:1004100063EA050362464FF00004A9E7000000000C
:1004200001F0FF01102A2BDB10F0070F08D010F8A5
:10043000013B013A8B422DD010F0070F42B3F6D1A9
:10044000F0B441EA012141EA014122F007047FF0C2
:1004500000070023F0E80256083C85EA010586EA19
:10046000010685FA47F5A3FA87F586FA47F6A5FA55
:1004700087F68EB9EED1F0BC01F0FF0102F0070261
:1004800032B110F8013B013A83EA010313B1F8D10C
:100490000020704701387047002D06BF35460338ED
:1004A000073815F0010F07D1013015F4807F02BF26
:1004B000013015F4C03F0130F0BC0138704700BF77
:1004C0000348044B834202D0034B03B118477047E3
:1004D0005408002054080020000000000548064988
:1004E000091A891001EBD171491002D0034B03B1F5
:1004F00018477047540800205408002000000000EE
:1005000010B5064C237843B9FFF7DAFF044B13B15B
:100510000448AFF300800123237010BD5808002069
:1005200000000000B858000808B5054B1BB105498C
:100530000548AFF30080BDE80840FFF7CFBF00BF1C
:10054000000000005C080020B858000830B589B0F1
:100550000024039404940594069407940094184B83
:100560001A6B42F080021A631A6B02F0800200924A
:10057000009A01941A6B42F002021A631A6B02F09D
:1005800002020192019A02941A6B42F004021A6369
:100590001B6B03F004030293029B0A4D22460F21BA
:1005A000284600F003FC0F230393012304930594D2
:1005B000069403A9284600F00FFB09B030BD00BF28
:1005C000003802400004024000B583B000240094CB
:1005D0000E4803681A6800925B680093009B4FF016
:1005E000FF3304220DEB020101F08BF82346224673
:1005F00001A90748006801F06BFA0121054B186852
:1006000001F0B0F9012001F07CF9DFE7205A002069
:10061000185A0020685A002000B583B006E011483F
:1006200003F052FD4FF4FA7001F06BF94FF4FA73D6
:10063000002201210C48006801F0C2F90128EED126
:100640000A4C00231A4601A9206801F085FA01A886
:1006500003F03AFD00231A4601A9206801F038FA98
:10066000E4E700BF70590008685A0020185A0020BB
:1006700010B582B034E00221244B186801F072F901
:100680000134032CF7DD3223002202211F480068C9
:1006900001F096F9022834D09DF80420303A1C4C21
:1006A000D2B20121204600F081FB9DF80520303AAE
:1006B000D2B20221204600F079FB9DF80620303AA4
:1006C000D2B20421204600F071FB9DF80720303A99
:1006D000D2B20821204600F069FB012001F011F997
:1006E0004FF0FF33002204210848006801F068F948
:1006F00000231A4601A90748006801F02DFA0024DA
:10070000BFE7054803F0E0FCE7E700BF685A0020B8
:1007100000040240185A00206459000800B583B054
:1007200001904FF0FF3304220DEB0201034800F06B
:100730007BFF019803B05DF804FB00BF205A002046
:1007400010B582B000238DF8073000930D4C23685C
:100750001A6800925B680093009B4FF0FF33012200
:100760000DF10701204600F0CCFF4FF0FF330122CE
:100770000DF10701204600F057FF9DF8070002B079
:1007800010BD00BF205A002072B6FEE708B50A4827
:100790000A4B03604FF4E133436000238360C3607E
:1007A00003610C2242618361C36100F00EFF00B956
:1007B00008BDFFF7E9FF00BF205A0020004C0040B1
:1007C00000B595B03022002108A803F0DFFB00231C
:1007D0000393049305930693079301931E4A116CA8
:1007E00041F080511164126C02F080520192019A22
:1007F00002931A4B1A6842F480421A601B6803F491
:1008000080430293029B012308934FF480330993A2
:1008100002220E924FF480030F930423109354216D
:1008200011911292139308A800F0C6FA80B90F2311
:10083000039302210491002305934FF48052069202
:10084000079303A800F01EFD20B915B05DF804FB66
:10085000FFF79AFFFFF798FF003802400070004052
:1008600008B500F031F9FFF7ABFFFFF76FFEFFF7B8
:100870008DFF00F0B7FF124A0121042001F0DBF8E0
:10088000104B1860104A0021104800F0DBFF104B9D
:100890001860104A0021104800F0D4FF0F4B186078
:1008A0000F4A00210F4800F0CDFF0F4B18600F4892
:1008B00001F035F80E4B186000F0A8FFFEE700BF0E
:1008C0004C590008185A0020D0580008C9050008E3
:1008D000145A0020F458000819060008645A002031
:1008E00018590008710600081C5A00203C590008DD
:1008F000685A002000B583B0002200920D4B596C5D
:1009000041F480415964596C01F48041009100998F
:100910000192196C41F0805119641B6C03F08053F3
:100920000193019B0F216FF0010000F00BF903B060
:100930005DF804FB0038024000B589B00023039342
:1009400004930593069307930268154B9A4202D0CD
:1009500009B05DF804FB0021019103F5F6331A6C30
:1009600042F400221A641A6C02F400220192019AE5
:1009700002911A6B42F004021A631B6B03F004032A
:100980000293029B4FF440630393022304930323D7
:1009900006930823079303A9024800F01DF9D7E73F
:1009A000004C004000080240FEE7FEE7FEE7FEE7DD
:1009B000FEE7704708B500F0A1F802F087FE0128B5
:1009C00000D108BD01F05EFBFBE770B50C46164692
:1009D0000025B54207DAFFF7B3FE214601F8010B07
:1009E00001350C46F5E7304670BD70B50C4616462D
:1009F0000025B54205DA14F8010BFFF78FFE01352B
:100A0000F7E7304670BD4FF0FF3070474FF40053AA
:100A10004B600020704701207047002070470000A5
:100A200010B503460C4A0D490D48006840B10C480A
:100A300000680344521A934206D8094A136010BD55
:100A40000748084C0460F2E703F076FA0C230360D1
:100A50004FF0FF30F3E700BF000002200004000069
:100A600074080020D85A0020034AD2F8883043F492
:100A70007003C2F88830704700ED00E010B50446FE
:100A80000E4B18784FF47A73B3FBF0F30C4A1068EE
:100A9000B0FBF3F000F08AF868B90F2C01D90120FF
:100AA0000AE0002221464FF0FF3000F04BF8054BE2
:100AB0001C60002000E0012010BD00BF04000020E9
:100AC000000000200800002008B50B4B1A6842F413
:100AD00000721A601A6842F480621A601A6842F45E
:100AE00080721A60032000F01BF80F20FFF7C6FF8A
:100AF000FFF700FF002008BD003C0240034A1168D8
:100B0000034B1B780B441360704700BF6C5A0020E6
:100B100004000020014B1868704700BF6C5A002089
:100B2000074AD36823F4E0631B041B0C000200F4A3
:100B3000E060184340F0BF6040F40030D060704780
:100B400000ED00E030B4174BDB68C3F30223C3F1C0
:100B50000704042C28BF04241D1D062D01D9033BC6
:100B600000E000234FF0FF3505FA04F421EA040108
:100B7000994005FA03F322EA03031943002809DB2D
:100B80000901C9B200F1604000F5614080F800132E
:100B900030BC704700F00F000901C9B2024B195474
:100BA000F6E700BF00ED00E014ED00E00138B0F121
:100BB000807F0AD2064B5860064AF02182F8231043
:100BC0000020986007221A6070470120704700BF1C
:100BD00010E000E000ED00E000230F2B00F2DC80CD
:100BE000F0B482B05DE086685F000324BC4026EA72
:100BF0000406CC68BC4034438460466826EA02069A
:100C00004C68C4F300129A403243426056E0DC085C
:100C1000083450F8247003F0070296000F22B24007
:100C200027EA02070A69B2403A4340F8242059E013
:100C3000072200E00022B2403A430234574E46F801
:100C40002420574A9468EA4302EA04064F6817F4DE
:100C5000801F01D045EA0406514CA660E46802EA10
:100C600004064F6817F4001F01D045EA04064C4CF7
:100C7000E660646802EA04064F6817F4003F01D09A
:100C800045EA0406464C6660246822404E6816F425
:100C9000803F01D045EA0402414C226001330F2B12
:100CA00077D801229A400C6804EA0205AA42F5D1DD
:100CB0004C6804F00304013C012C94D94A6802F00A
:100CC0000302032A09D0C4685E000322B24024EA6A
:100CD00002048A68B2402243C2604A6802F00302FA
:100CE000022A94D004685E000322B24024EA02047F
:100CF0004A6802F00302B240224302604A6812F4DA
:100D0000403FCBD000220192264A546C44F48044E8
:100D10005464526C02F480420192019A9C08A61C11
:100D20001E4A52F8267003F0030296000F22B240CA
:100D300027EA02071C4A90423FF47CAF02F580622A
:100D400090421AD002F58062904218D002F580627B
:100D5000904216D002F58062904214D002F5806273
:100D6000904212D002F58062904210D002F580626B
:100D700090423FF45DAF08225DE701225BE702226B
:100D800059E7032257E7042255E7052253E70622D5
:100D900051E702B0F0BC7047704700BF0038014017
:100DA000003C014000380240000002400AB181616D
:100DB0007047090481617047002800F0DF8170B539
:100DC00082B00446036813F0010F3BD0A64B9B682A
:100DD00003F00C03042B2CD0A34B9B6803F00C03F3
:100DE000082B21D06368B3F5803F4FD0B3F5A02F17
:100DF00052D09D4B1A6822F480321A601A6822F48D
:100E000080221A606368002B50D0FFF783FE0546EE
:100E1000954B1B6813F4003F14D1FFF77BFE401B7A
:100E20006428F5D90320B0E18F4B5B6813F4800F81
:100E3000D8D08D4B1B6813F4003F03D06368002BA0
:100E400000F09E81236813F0020F54D0864B9B68FC
:100E500013F00C0F3ED0844B9B6803F00C03082B5F
:100E600033D0E368002B67D0804B01221A60FFF774
:100E700051FE05467C4B1B6813F0020F53D1FFF760
:100E800049FE401B0228F5D903207EE1764A13680B
:100E900043F480331360B5E7734B1A6842F4802241
:100EA0001A601A6842F480321A60ABE7FFF732FE2C
:100EB00005466D4B1B6813F4003FC3D0FFF72AFEB5
:100EC000401B6428F5D903205FE1674B5B6813F48E
:100ED000800FC6D1644B1B6813F0020F03D0E36888
:100EE000012B40F04F81604A136823F0F803216919
:100EF00043EAC1031360236813F0080F40D063690D
:100F000063B35B4B01221A60FFF704FE0546564BA4
:100F10005B6F13F0020F33D1FFF7FCFD401B02287B
:100F2000F5D9032031E1504A136823F0F803216911
:100F300043EAC1031360DEE74C4B00221A60FFF75F
:100F4000E9FD0546484B1B6813F0020FD3D0FFF7AD
:100F5000E1FD401B0228F5D9032016E1444B002295
:100F60001A60FFF7D7FD05463F4B5B6F13F0020F8A
:100F700006D0FFF7CFFD401B0228F5D9032004E17E
:100F8000236813F0040F78D0374B1B6C13F0805F8D
:100F900033D100230193344B1A6C42F080521A640F
:100FA0001B6C03F080530193019B0125314B1B689F
:100FB00013F4807F23D0A368012B34D0052B38D0C5
:100FC000294B1A6F22F001021A671A6F22F00402ED
:100FD0001A67A368002B36D0FFF79CFD0646224B0C
:100FE0001B6F13F0020F47D1FFF794FD801B41F2F6
:100FF00088339842F3D90320C7E00025D6E71D4A7D
:10100000136843F480731360FFF784FD0646194BA1
:101010001B6813F4807FCED1FFF77CFD801B022874
:10102000F5D90320B1E0104A136F43F001031367B1
:10103000CFE70D4B1A6F42F004021A671A6F42F0A5
:1010400001021A67C5E7FFF765FD0646064B1B6FF1
:1010500013F0020F10D0FFF75DFD801B41F28833C3
:101060009842F3D9032090E0003802400000474244
:10107000800E474200700040EDB9A369002B00F0DC
:101080008380494A926802F00C02082A51D0022B50
:1010900017D0464B00221A60FFF73CFD0446424B36
:1010A0001B6813F0007F42D0FFF734FD001B0228BD
:1010B000F5D9032069E03C4A136C23F08053136494
:1010C000DBE73A4B00221A60FFF724FD0546364B5A
:1010D0001B6813F0007F06D0FFF71CFD401B0228A1
:1010E000F5D9032051E0E369226A1343626A43EAB7
:1010F0008213A26A5208013A43EA0243E26A43EACF
:101100000263294A5360294B01221A60FFF702FD4E
:101110000446254B1B6813F0007F06D1FFF7FAFC4D
:10112000001B0228F5D903202FE000202DE000202D
:101130002BE0012B2BD01C4B5B6803F48001E26990
:10114000914226D103F03F02216A8A4223D1616A8B
:1011500047F6C0721A40B2EB811F1ED103F4403132
:10116000A26A5208013AB1EB024F18D103F0706342
:10117000E26AB3EB026F14D1002006E00120704751
:10118000012002E0012000E0002002B070BD01203B
:10119000FBE70120F9E70120F7E70120F5E701204F
:1011A000F3E70120F1E700BF00380240600047424A
:1011B000314B9B6803F00C03042B58D0082B58D1FB
:1011C00070B52D4B5A6802F03F025B6813F4800F34
:1011D0002AD0294B5868C0F38810054600264301E1
:1011E0001B1A66EB0604A10141EA93619801C01A3B
:1011F00061EB0401CB0043EA5073C4001946601947
:1012000046EB01014B0243EAD05344022046194603
:101210003346FEF7D5FF184B5B68C3F30143013338
:101220005B00B0FBF3F070BD134B5868C0F388103F
:101230000546002643011B1A66EB0604A10141EA9C
:1012400093619801C01A61EB0401CB0043EA50732B
:10125000C4001946601946EB01018B0243EA905322
:101260008402204619463346FEF7AAFFD3E7034817
:1012700070470348704700BF0038024000127A00F0
:101280000024F400002800F09B8070B50446504B09
:101290001B6803F007038B4208D2CBB24C4A137091
:1012A000136803F007038B4240F08C80236813F02F
:1012B000020F17D013F0040F04D0464A936843F48A
:1012C000E0539360236813F0080F04D0414A9368F9
:1012D00043F4604393603F4A936823F0F003A068AF
:1012E000034393600D46236813F0010F32D0636807
:1012F000012B21D09A1E012A25D9364A126812F0F4
:10130000020F61D033498A6822F0030213438B60D5
:10131000FFF700FC06462F4B9B6803F00C03626846
:10132000B3EB820F16D0FFF7F5FB801B41F2883339
:101330009842F0D9032042E0264A126812F4003F96
:10134000E0D101203BE0234A126812F0007FD9D19E
:10135000012034E01E4B1B6803F00703AB4207D9A2
:10136000EAB21B4B1A701B6803F00703AB422DD186
:10137000236813F0040F06D0164A936823F4E05351
:10138000E1680B439360236813F0080F07D0114AFC
:10139000936823F46043216943EAC1039360FFF734
:1013A00007FF0C4B9B68C3F303130B4AD35CD84075
:1013B0000A4B18600A4B1868FFF760FB002070BDED
:1013C000012070470120FAE70120F8E70120F6E745
:1013D000003C024000380240B859000800000020DC
:1013E00008000020014B1868704700BF0000002073
:1013F00008B5FFF7F7FF044B9B68C3F38223034A4A
:10140000D35CD84008BD00BF00380240C85900086E
:1014100008B5FFF7E7FF044B9B68C3F34233034A69
:10142000D35CD84008BD00BF00380240C85900084E
:1014300070B504460268136923F44053C1680B4336
:10144000136183680269134342691343C2691A43F3
:101450000168CB6823F4164323F00C031343CB60DD
:101460000268536923F4407381690B435361036835
:10147000344A934206D002F58062934202D0FFF7CD
:10148000B7FF01E0FFF7C4FFE369B3F5004F2AD0CF
:101490000026051846EB06012D1846EB0101CB008E
:1014A00043EA5573EA001546194663689A009B0F94
:1014B000281846EB0101FEF783FE234DA5FB003201
:1014C0005109642303FB11031B013233A5FB0323E2
:1014D0005B0903F0F00202EB011203F00F03216835
:1014E00013448B6070BD0026051846EB06012D18CD
:1014F00046EB0101CB0043EA5573EA001546194655
:1015000062683346921846EB0303281846EB010144
:10151000FEF756FE0C4DA5FB00325109642303FB78
:101520001103DB003233A5FB03235B095A0002F4ED
:10153000F87202EB011203F00703216813448B6079
:10154000D0E700BF001001401F85EB512DE9F041AD
:1015500004460F4616469846069D23681B6837EAE0
:1015600003030CBF01230023B3422BD1B5F1FF3F8E
:10157000F3D02DB1FFF7CEFAA0EB0800A842ECD9CA
:10158000226802F10C0353E8003F23F4D0730C32BD
:1015900042E800310029F3D1226802F1140353E834
:1015A000003F23F00103143242E800310029F3D157
:1015B000202384F83D3084F83E30002384F83C300A
:1015C000032000E00020BDE8F08158B310B50446C8
:1015D00090F83D300BB3242384F83D302268D36863
:1015E00023F40053D3602046FFF722FF22681369DB
:1015F00023F4904313612268536923F02A03536153
:101600002268D36843F40053D36000202064202371
:1016100084F83D3084F83E3010BD80F83C30FFF750
:101620008BF9D8E7012070472DE9F04182B01E46C2
:1016300090F83D30DBB2202B54D104460D46904645
:10164000002954D0002A54D090F83C30012B52D0BD
:10165000012380F83C3000230364212380F83D30CF
:10166000FFF758FA0746A4F82480A4F82680A36858
:10167000B3F5805F05D04FF00008002384F83C30BC
:1016800011E0236913B14FF00008F6E7A8460025E2
:10169000F3E738F8023B2268C3F308035360E38C96
:1016A000013B9BB2E384E38C9BB273B100963B4653
:1016B000002280212046FFF749FFF0B9002DE8D035
:1016C00015F8012B23685A60E9E700963B46002293
:1016D00040212046FFF73AFF034680B9202284F8D4
:1016E0003D2000E00223184602B0BDE8F08101234E
:1016F000F9E70123F7E70223F5E70323F3E70323E1
:10170000F1E72DE9F04182B01E4690F83E30DBB2A1
:10171000202B5BD104460D46904600295AD0002A62
:101720005AD090F83C30012B58D0012380F83C303F
:1017300000230364222280F83E200363FFF7EAF9C6
:101740000746A4F82C80A4F82E80A368B3F5805F28
:1017500005D04FF00008002384F83C3016E02369E0
:1017600013B14FF00008F6E7A8460025F3E7236819
:101770005B68C3F3080328F8023B03E023685B6857
:101780002B700135E38D013B9BB2E385E38D9BB26A
:10179000BBB100963B46002220212046FFF7D6FE33
:1017A000F0B9002DE3D0A368B3F5805FE6D013B99C
:1017B0002369002BE2D023685B6803F07F032B7062
:1017C000DFE7202384F83E30002000E0022002B052
:1017D000BDE8F0810120FAE70120F8E70220F6E7F2
:1017E0000320F4E7EFF305833BB9074B1B683BB9D4
:1017F000054B01221A60002070476FF0050070470A
:101800004FF0FF30704700BF000F0020EFF305835B
:1018100073B90A4B1B68012B0DD110B50024084B7E
:10182000DC77064B02221A6001F02AFC204610BD2C
:101830006FF0050070474FF0FF307047000F002039
:1018400000ED00E0F0B587B000240594EFF30584C7
:101850007CBB70B32AB31668946904B91824631E5C
:10186000372B4AD8536813F0010F48D1556975B129
:101870004FEA950C936833B1D768B7F5916F02D3EF
:10188000176907B1C5B92BB14FF0FF350EE04FF026
:10189000800CEFE7D3688BB9136993B14FF0FF3534
:1018A00004E0002518244FF0800C2E46012D0AD0AC
:1018B000ADB1059807B0F0BD0125F7E74FF0FF3552
:1018C000F4E70025F2E7136992680292019300940D
:1018D0000B466246314601F063FB0590E9E705AA35
:1018E000019200940B461FFA8CF2314601F094FBF2
:1018F0000128DED000230593DBE70020DAE7002093
:10190000D8E708B5EFF3058333B908B9002008BD5F
:1019100001F022FD0020FAE76FF00500F7E708B5B7
:10192000EFF30583CBB9A0B1836813B1C2681F2A56
:101930000BD82BB14FF0FF338BB900F09CF908BDE9
:10194000C36843B14FF0FF33F6E7184600F06EF975
:10195000F5E70023F0E70023EEE70020EFE70020A3
:10196000EDE70000F0B111F07F4F1ED110B582B04D
:101970000C46EFF305838BB10023019301AA00F01D
:101980005BFAA8B1019BB3B10C4B4FF080521A60C7
:10199000BFF34F8FBFF36F8F204601E000F000FAD6
:1019A00002B010BD6FF0030070476FF00300704786
:1019B0006FF00200F4E72046F2E700BF04ED00E01C
:1019C00048B3F0B583B0044611F07F4F26D1EFF352
:1019D000058038BB12F0010613D0012712F0020F68
:1019E00011D0002220461D460C4600933B4600F0D5
:1019F00051F956B134EA000312D0B5B16FF00100CD
:101A00000EE00027EAE70122ECE7044208D17DB1AD
:101A10006FF0010004E06FF0030070476FF0030007
:101A200003B0F0BD6FF00500FAE76FF00200F7E7D2
:101A30006FF00200F4E770B582B0EFF30583002B7E
:101A40003BD100283DD000293DD0144662B39368B5
:101A50004BB1D2684F2A06D9226922B1666901FBCF
:101A600000F5AE421AD26BB14FF0FF336BBB0022D0
:101A700000F053FE05460DB3ECB12168284601F095
:101A80009DF81BE0E3688BB9236913B14FF0FF3376
:101A9000ECE763696BB14FF0FF33E7E70025009592
:101AA00000F0F1FD0546E6E70023DFE74FF0FF33E6
:101AB000DCE70023DAE70021E0E70025284602B052
:101AC00070BD0025FAE70025F8E70025F6E70000DD
:101AD00010B582B01C46EFF30583B3B108B319B358
:101AE0002CBB0023019301AA00F0FCFE012821D1A8
:101AF000019B13B3174B4FF080521A60BFF34F8F07
:101B0000BFF36F8F002002B010BDC0B1D1B1002370
:101B1000224600F027FE012817D0C4B16FF0010063
:101B2000F1E76FF00300EEE76FF00300EBE76FF013
:101B30000300E8E76FF00200E5E70020E3E76FF05D
:101B40000300E0E76FF00300DDE70020DBE76FF064
:101B50000200D8E704ED00E010B582B01C46EFF3B8
:101B60000583B3B100B311B324BB0023019301AAD1
:101B700000F0CEFF012820D1019B0BB3174B4FF093
:101B800080521A60BFF34F8FBFF36F8F002002B0F7
:101B900010BDB8B1C9B1224600F00CFF012817D022
:101BA000C4B16FF00100F2E76FF00300EFE76FF0F0
:101BB0000300ECE76FF00300E9E76FF00200E6E7EF
:101BC0000020E4E76FF00300E1E76FF00300DEE7D9
:101BD0000020DCE76FF00200D9E700BF04ED00E071
:101BE000034B0360034B0B6080231360704700BFFF
:101BF000780A002078080020034B0360034B0B6039
:101C00004FF480731360704708130020040F002006
:101C10001AB9084206D10020704731EA000303D008
:101C200000207047012070470120704780B110B537
:101C300082B0044620230193019B202B11D04FF04A
:101C4000500383F31188BFF36F8FBFF34F8FFEE70D
:101C50004FF0500383F31188BFF36F8FBFF34F8FA3
:101C6000FEE7002340F8043B00F0F0F8012323775F
:101C7000204602B010BD38B5202000F049FB0446D4
:101C800028B1002540F8045B00F0E0F825772046F5
:101C900038BD00002DE9F047DDF8209060B1064620
:101CA00011F07F4A11D04FF0500383F31188BFF336
:101CB0006F8FBFF34F8FFEE74FF0500383F3118810
:101CC000BFF36F8FBFF34F8FFEE741B94FF0500363
:101CD00083F31188BFF36F8FBFF34F8FFEE79846F2
:101CE00017460C4601F0F2FC58B9B9F1000F08D0C4
:101CF0004FF0500383F31188BFF36F8FBFF34F8F03
:101D0000FEE701F00FFA3568424621462846FFF704
:101D10007FFFE0B117B125EA0403336001F09EFABA
:101D2000BAF1000F10D038B91C4B4FF080521A6036
:101D3000BFF34F8FBFF36F8F01F020FD054610F00A
:101D4000007F1BD025F07F452846BDE8F087B9F11C
:101D5000000F11D06FB90021B8F1000F01D041F090
:101D600080614A462143301D01F088FBCA460025A8
:101D7000D4E74FF08071EFE7CA46CFE700F012F9E1
:101D80003568424621462846FFF742FF18B117B191
:101D900025EA0404346000F027F9D3E704ED00E0FD
:101DA000F8B560B1044611F07F4F11D04FF05003E9
:101DB00083F31188BFF36F8FBFF34F8FFEE74FF0B0
:101DC000500383F31188BFF36F8FBFF34F8FFEE78C
:101DD0000D4600F10C0601F0A5F9206923682B439C
:101DE000236000250AE0216833EA010105D111E0F2
:101DF000216841F0007101F0D1FB3846B0420ED0AD
:101E00004768026822F07F4312F0806FEBD12168AF
:101E10001942F2D012F0807FEAD01D43E8E7236830
:101E200023EA0503236001F019FA2068F8BD08B51C
:101E3000FFF7B6FF08BD000008B513460A46014685
:101E4000014801F0D3FE08BD2F1E000800F1080371
:101E500043604FF0FF328260C36003610023036080
:101E6000704700230361704743684B609A688A603B
:101E7000516099600861036801330360704730B4B2
:101E80000D68B5F1FF3F02D000F1080202E00269DF
:101E900004E01A4653681C68AC42FAD953684B6098
:101EA00099608A605160086103680133036030BC47
:101EB00070470369416882688A60416851605A6866
:101EC000824206D0002202611A68013A1A6018683C
:101ED000704782685A60F5E782B0002301930D4B8A
:101EE0001B68B3F1FF3F08D04FF0500383F3118814
:101EF000BFF36F8FBFF34F8FFEE74FF0500383F3B5
:101F00001188BFF36F8FBFF34F8F019B002BFCD065
:101F100002B070470C00002008480068006880F399
:101F200008884FF0000080F3148862B661B6BFF3F2
:101F30004F8FBFF36F8F00DF00BF000008ED00E0A0
:101F4000DFF80C00016841F4700101607047000087
:101F500088ED00E04FF0807340F8043C21F001016F
:101F600040F8081C054B40F80C3C40F8202C6FF062
:101F7000020340F8243C4438704700BFD91E0008D3
:101F8000074B19680868B0E8F04F80F30988BFF381
:101F90006F8F4FF0000080F311887047AFF300801F
:101FA000B85300204FF0500383F31188BFF36F8FB5
:101FB000BFF34F8F0A4A136801331360012B00D01F
:101FC0007047084B1B6813F0FF0FF9D04FF0500318
:101FD00083F31188BFF36F8FBFF34F8FFEE700BF0E
:101FE0000C00002004ED00E0094B1B6843B94FF0E2
:101FF000500383F31188BFF36F8FBFF34F8FFEE75A
:10200000013B034A13600BB983F31188704700BF8B
:102010000C00002000000000000000000000000094
:10202000EFF30980BFF36F8F154B1A681EF0100F86
:1020300008BF20ED108A20E9F04F10602DE909005B
:102040004FF0500080F31188BFF34F8FBFF36F8FB5
:1020500001F0A8F94FF0000080F3118809BC19685D
:102060000868B0E8F04F1EF0100F08BFB0EC108AFF
:1020700080F30988BFF36F8F704700BFAFF3008014
:10208000B853002008B54FF0500383F31188BFF315
:102090006F8FBFF34F8F01F053F818B1034B4FF020
:1020A00080521A60002383F3118808BD04ED00E01C
:1020B000084A0023136008490B60084B1B68084955
:1020C000A1FB03139B09013B06490B600723136027
:1020D000704700BF10E000E018E000E000000020C2
:1020E000D34D621014E000E03A4B1A683A4B9A4222
:1020F00029D0384B1A68394B9A422DD010B582B08E
:10210000374B1A78D2B20192FF221A701B78DBB2D9
:102110008DF803309DF8033003F05003314A1370FB
:10212000314B07221A609DF8033013F0800F1CD04A
:102130002D4A1368013B13609DF803305B00DBB24E
:102140008DF80330EFE74FF0500383F31188BFF3AE
:102150006F8FBFF34F8FFEE74FF0500383F311886B
:10216000BFF36F8FBFF34F8FFEE71F4B1B68032B2F
:1021700008D04FF0500383F31188BFF36F8FBFF384
:102180004F8FFEE71B0203F4E063174A1360019BC5
:10219000DBB2134A1370154B1A6842F470021A60CE
:1021A0001A6842F070421A60FFF782FF0024104B59
:1021B0001C60FFF7C5FE0F4A136843F040431360ED
:1021C000FFF7AAFE01F0EEF8FFF786FE204602B008
:1021D00010BD00BF00ED00E071C20F4170C20F41A1
:1021E00000E400E0901700209417002020ED00E0AC
:1021F0000C00002034EF00E0EFF305830F2B0FD924
:10220000104A9B5CDBB2104A12789A4208D94FF010
:10221000500383F31188BFF36F8FBFF34F8FFEE737
:102220000A4B1B6803F4E063094A1268934208D919
:102230004FF0500383F31188BFF36F8FBFF34F8FBD
:10224000FEE77047F0E300E0901700200CED00E09F
:1022500094170020124A12F0070F07D0D11D21F069
:102260000701C1F5705313440A4601E04FF470535F
:102270000C480260002141601344083B23F007032F
:102280000948036059601960991A51601360074B3F
:102290001960074B1960074B4FF000421A607047F6
:1022A0009C170020B053002098170020A453002052
:1022B000A05300209C53002010B4134A00E01A469B
:1022C00013688342FBD35168541884420AD0416892
:1022D0004418A3420BD00360904200D010605DF818
:1022E000044B70474068014451601046EFE7074CCB
:1022F0002468A34206D05B681944416013681B68D8
:102300000360E9E70460E7E7B05300209817002076
:1023100070B5044600F006FF3C4B1B68BBB13C4B5C
:102320001B681C425AD1ACB1083414F0070F11D00D
:1023300024F00704083404F007035BB14FF05003A6
:1023400083F31188BFF36F8FBFF34F8FFEE7FFF763
:1023500081FFE4E7002C43D02E4B1B68A3424ED3F1
:102360002D4B1D6801E02B4615466A68A24202D239
:102370002A68002AF7D1254A1268AA4241D01E686D
:1023800008362A681A606B681B1B102B10D9281995
:1023900010F0070F08D04FF0500383F31188BFF3FC
:1023A0006F8FBFF34F8FFEE743606C60FFF784FFD2
:1023B0006A6818490B689B1A0B60184909688B42B8
:1023C00001D216490B60124B1B6813436B6000234C
:1023D0002B60134A13680133136002E0002600E00B
:1023E000002600F03BFF16F0070F0CD04FF0500313
:1023F00083F31188BFF36F8FBFF34F8FFEE7002683
:10240000EFE70026EDE7304670BD00BF98170020CB
:102410009C530020A0530020B0530020A453002060
:10242000A8530020002834D038B50446A0F1080590
:1024300050F8042C174909680A4208D14FF050039C
:1024400083F31188BFF36F8FBFF34F8FFEE750F810
:10245000080C40B14FF0500383F31188BFF36F8F26
:10246000BFF34F8FFEE722EA010244F8042C00F08C
:1024700059FE54F8041C084A13680B44136028469C
:10248000FFF71AFF054A13680133136000F0E6FEF8
:1024900038BD70479C530020A0530020AC5300204F
:1024A00010B50446FFF77EFDA26BE36B9A4204D0A1
:1024B0000024FFF799FD204610BD0124F9E710B56F
:1024C0000446FFF76FFDA36B23B90124FFF78CFDD2
:1024D000204610BD0024F9E770B504461646856B0A
:1024E000026C5AB903681BB100200135A56370BDA9
:1024F000806801F0FBF80023A360F6E76EB940683E
:10250000FDF778FE226C636813446360A26893420F
:1025100019D3236863600020E7E7C068FDF76AFE0F
:10252000226C5242E3681344E36021688B4202D27A
:10253000A3681A44E260022E01D00020D5E725B13D
:10254000013D0020D1E70020CFE70020CDE7026C5D
:1025500072B110B5C3681344C3608468A34201D349
:102560000368C3600C46C1682046FDF743FE10BDFA
:10257000704738B50546FFF715FD95F8454064B23C
:1025800003E001F09DF8013C64B2002C08DD6B6AA9
:1025900033B105F1240000F0BBFF0028F3D0F0E7D1
:1025A000FF2385F84530FFF71FFDFFF7FBFC95F88B
:1025B000444064B203E001F083F8013C64B2002CB3
:1025C00008DD2B6933B105F1100000F0A1FF0028F0
:1025D000F3D0F0E7FF2385F84430FFF705FD38BD61
:1025E00038B5E0B104460D46FFF7DCFC2168E26B2C
:1025F000236C03FB0210A0600020A0636160013A1D
:1026000002FB0313E360FF2384F8443084F8453071
:10261000EDB9236963B9FFF7E7FC012038BD4FF03E
:10262000500383F31188BFF36F8FBFF34F8FFEE723
:1026300004F1100000F06CFF0028ECD0084B4FF0C4
:1026400080521A60BFF34F8FBFF36F8FE3E704F13F
:102650001000FFF7FBFB04F12400FFF7F7FBDAE7BC
:1026600004ED00E038B51D46049C0B4649B92460D2
:10267000E063236401212046FFF7B2FF84F84C5049
:1026800038BD2260F4E740B94FF0500383F311885E
:10269000BFF36F8FBFF34F8FFEE710B584B00446D2
:1026A00053B192B189B94FF0500383F31188BFF34E
:1026B0006F8FBFF34F8FFEE74FF0500383F3118806
:1026C000BFF36F8FBFF34F8FFEE76AB150200390C7
:1026D0000398502813D04FF0500383F31188BFF3B1
:1026E0006F8FBFF34F8FFEE70029EFD04FF05003FD
:1026F00083F31188BFF36F8FBFF34F8FFEE7204640
:102700001C46039B012384F8463000949DF8183042
:10271000FFF7A8FF204604B010BD40B94FF05003AA
:1027200083F31188BFF36F8FBFF34F8FFEE7F0B5D0
:1027300083B0054617460E4601FB00F05030FFF708
:10274000E7FD044650B1002380F8463000903B4638
:1027500000F1500231462846FFF784FF204603B0BF
:10276000F0BD0000F0B585B0019278B10446B1B17A
:10277000022B20D1E26B012A1DD04FF0500383F3CE
:102780001188BFF36F8FBFF34F8FFEE74FF05003F9
:1027900083F31188BFF36F8FBFF34F8FFEE7026C97
:1027A000002AE5D04FF0500383F31188BFF36F8FF9
:1027B000BFF34F8FFEE71E460F4600F087FF50B96C
:1027C000019B53B14FF0500383F31188BFF36F8F18
:1027D000BFF34F8FFEE700253BE0002539E032468E
:1027E00039462046FFF778FE636A6BB938B13C4B37
:1027F0004FF080521A60BFF34F8FBFF36F8FFFF718
:10280000F3FB012005B0F0BD04F1240000F080FED0
:102810000028F4D0324B4FF080521A60BFF34F8F34
:10282000BFF36F8FEBE7FFF7DFFB0020EAE702A8BB
:1028300000F0F8FE012519E0002384F8443021E07F
:10284000002384F8453023E02046FFF792FE00F095
:1028500005FDFFF7A7FBA26BE36B9A42BFD3022EE5
:10286000BDD0019B002BDED0002DE0D0FFF7BCFBDC
:1028700000F058FCFFF796FB94F844305BB2B3F1DC
:10288000FF3FD9D094F845305BB2B3F1FF3FD7D0CA
:10289000FFF7AAFB01A902A800F0D0FEC8B92046A4
:1028A000FFF7FEFD0028CFD0019904F1100000F0E1
:1028B000CDFD2046FFF75DFE00F0D0FC0028C8D11A
:1028C000074B4FF080521A60BFF34F8FBFF36F8FEB
:1028D000BFE72046FFF74DFE00F0C0FC002091E767
:1028E00004ED00E02DE9F84378B10446B1B1022BC4
:1028F00020D1E06B01281DD04FF0500383F31188E5
:10290000BFF36F8FBFF34F8FFEE74FF0500383F39A
:102910001188BFF36F8FBFF34F8FFEE7006C002865
:10292000E5D04FF0500383F31188BFF36F8FBFF3EF
:102930004F8FFEE71F4690468946FFF75DFCEFF399
:1029400011864FF0500383F31188BFF36F8FBFF3ED
:102950004F8FA26BE36B9A4206D3022F04D0002064
:1029600086F31188BDE8F88394F845506DB2A36BE7
:102970003A4649462046FFF7AFFDB5F1FF3F05D087
:102980006B1C5BB284F845300120E9E7636A0BB940
:102990000120E5E704F1240000F0BAFD30B1B8F100
:1029A000000F05D00120C8F80000D9E70120D7E7C3
:1029B0000120D5E7F0B585B0019280B10446B9B1E8
:1029C0000F4600F083FEF8B9019BFBB14FF05003B6
:1029D00083F31188BFF36F8FBFF34F8FFEE74FF084
:1029E000500383F31188BFF36F8FBFF34F8FFEE760
:1029F000036C002BE4D04FF0500383F31188BFF336
:102A00006F8FBFF34F8FFEE700263EE000263CE0CD
:102A100039462046FFF79BFD013DA563236923B995
:102A2000FFF7E2FA012005B0F0BD04F1100000F05C
:102A30006FFD0028F4D0354B4FF080521A60BFF381
:102A40004F8FBFF36F8FEBE7FFF7CEFA0020EAE777
:102A500002A800F0E7FD012621E0002384F84430BD
:102A600029E0002384F845302BE02046FFF781FD64
:102A700000F0F4FB09E02046FFF77BFD00F0EEFBE1
:102A80002046FFF71CFD00283DD1FFF78BFAA56B10
:102A9000002DBDD1019B002BD6D0002ED8D0FFF742
:102AA000A3FA00F03FFBFFF77DFA94F844305BB2E5
:102AB000B3F1FF3FD1D094F845305BB2B3F1FF3FA3
:102AC000CFD0FFF791FA01A902A800F0B7FD0028C6
:102AD000D1D12046FFF7F3FC0028C6D0019904F1BC
:102AE000240000F0B3FC2046FFF743FD00F0B6FBE6
:102AF0000028CAD1054B4FF080521A60BFF34F8FA8
:102B0000BFF36F8FC1E700208DE700BF04ED00E049
:102B10002DE9F843C8B1044601B317468946FFF7CB
:102B20006BFBEFF311864FF0500383F31188BFF373
:102B30006F8FBFF34F8FD4F83880B8F1000F19D1E1
:102B4000002086F31188BDE8F8834FF0500383F32B
:102B50001188BFF36F8FBFF34F8FFEE7036C002B1D
:102B6000DBD04FF0500383F31188BFF36F8FBFF3B7
:102B70004F8FFEE794F844506DB249462046FFF768
:102B8000E6FC08F1FF33A363B5F1FF3F05D06B1CF2
:102B90005BB284F844300120D3E723690BB90120EC
:102BA000CFE704F1100000F0B3FC18B127B1012009
:102BB0003860C6E70120C4E70120C2E70023072BE5
:102BC0000CD8074A52F833200AB10133F7E7044A18
:102BD00042F8331002EBC30358607047704700BFE0
:102BE000705A002070B504460D461646FFF7DAF914
:102BF00094F844305BB2B3F1FF3F0DD094F8453008
:102C00005BB2B3F1FF3F0BD0FFF7EEF9A36B5BB103
:102C10002046FFF7AEFC70BD002384F84430EDE79A
:102C2000002384F84530EFE73246294604F12400BA
:102C300000F052FCECE70000084B1B681B6823B94E
:102C4000074B4FF0FF321A607047044B1B68DB687C
:102C5000DB685A68024B1A60704700BFBC53002003
:102C6000605800202DE9F04781460D4617469A46E8
:102C7000089EDDF824800A9C9200A521206B01F0BB
:102C800085F9236B07F18042013A03EB820727F0B5
:102C90000707002D5ED000230F2B06D8EA5CE11851
:102CA00081F834200AB10133F6E7002384F8433079
:102CB000372E00D93726E662E66400252565201DFB
:102CC000FFF7CFF804F11800FFF7CBF82461C6F145
:102CD0003806A6616462C4F8805484F884544FF4C2
:102CE0008562294604F1580001F050F904F551734A
:102CF000E36504F56B73236604F2144363660122F3
:102D00000023C4E9402343F20E33A4F808314AF605
:102D1000CD33A4F80A3141F23423A4F80C314EF239
:102D20006D63A4F80E314DF6EC63A4F81031052361
:102D3000A4F812310B23A4F8143152464946384600
:102D4000FFF708F92060B8F1000F01D0C8F8004083
:102D5000BDE8F087002384F83430A9E738B50024B3
:102D6000372C08D804EB840293000E481844FFF770
:102D70006DF80134F4E70C4D2846FFF767F80B4C6B
:102D80002046FFF763F80A48FFF760F80948FFF7A5
:102D90005DF80948FFF75AF8084B1D60084B1C60A6
:102DA00038BD00BFC4530020385800204C580020C4
:102DB0006C5800209858002084580020BC530020F4
:102DC000C053002010B50446FFF7ECF8214A136801
:102DD00001331360204B1B685BB1204B1B686BB940
:102DE0001D4B1B68DA6AE36A9A4207D81A4B1C60CB
:102DF00004E0194B1C601368012B27D0184A136894
:102E0000013313606364E36A164A1268934201D97E
:102E1000144A136003EB83039A00211D12481044E7
:102E2000FFF722F8FFF7E0F80C4B1B686BB10A4B79
:102E30001B68DA6AE36A9A4207D20C4B4FF0805261
:102E40001A60BFF34F8FBFF36F8F10BDFFF786FF80
:102E5000D4E700BF24580020B85300208058002039
:102E60003058002034580020C453002004ED00E006
:102E700010B50446583001F03DF994F8853463B13B
:102E8000012B11D0022B0ED04FF0500383F3118889
:102E9000BFF36F8FBFF34F8FFEE7206BFFF7C2FAD0
:102EA0002046FFF7BFFA10BD2046FFF7BBFAFAE74E
:102EB0000F4B1B68D3B110B5FFF774F80D4BDB68EF
:102EC000DC68201DFEF7F5FF0B4A1368013B136019
:102ED000074A1368013B1360FFF786F82046FFF7A7
:102EE000C7FF034B1B68002BE6D110BD704700BF26
:102EF00028580020985800202458002008B5FFF7D3
:102F0000D7FF064B1B68012BF9D9054B4FF08052B8
:102F10001A60BFF34F8FBFF36F8FF0E7C4530020E9
:102F200004ED00E070B504460E46174B1D68174BC4
:102F300018680430FEF7BDFFB4F1FF3F0DD02C44FC
:102F4000124B1B685C60A54210D9114B18680F4BDF
:102F500019680431FEF793FF70BD002EEFD00B4BC4
:102F6000196804310B48FEF77FFFF5E70A4B186834
:102F7000064B19680431FEF782FF084B1B68A34219
:102F8000EAD9064B1C60E7E7AC580020B853002094
:102F9000C053002084580020BC53002060580020FB
:102FA00070B586B00B9D0C9C85B1C4B14FF4916691
:102FB0000496049EB6F5916F1AD04FF0500383F338
:102FC0001188BFF36F8FBFF34F8FFEE74FF05003B1
:102FD00083F31188BFF36F8FBFF34F8FFEE74FF07E
:102FE000500383F31188BFF36F8FBFF34F8FFEE75A
:102FF000049E2563022584F88554002503950294D8
:1030000005AD01950A9D0095FFF72CFE2046FFF7C0
:10301000D9FE059806B070BD2DE9F04385B007468E
:103020008846154699469000FFF772F900B30646A8
:103030004FF49160FFF76CF90446A8B10663E4B160
:10304000002384F88534039302940D9B01930C9B19
:1030500000934B462A4641463846FFF703FE20467A
:10306000FFF7B0FE012005E03046FFF7DBF9E6E7A9
:103070004FF0FF3005B0BDE8F0834FF0FF30F9E7C7
:1030800010B588B000240594069407AA06A905A8DF
:10309000FEF7A6FD059B0293069B01930094234631
:1030A000079A19491948FFF77BFF40B100F0DEFB92
:1030B000012806D0B0F1FF3F1DD008B010BD0020A0
:1030C000F6E74FF0500383F31188BFF36F8FBFF320
:1030D0004F8F0F4B1B6858330E4A13600E4B4FF047
:1030E000FF321A600D4B01221A600D4B00221A604C
:1030F000FEF7FAFFE1E74FF0500383F31188BFF3C7
:103100006F8FBFF34F8FFEE7D0590008FD2E0008E8
:10311000B853002010000020605800208058002084
:10312000AC580020024A136801331360704700BF97
:103130002C580020014B1868704700BFAC58002085
:10314000F8B53B4B1B68002B6AD13A4B1D68013523
:103150001D60C5B9384B1B681B6843B14FF0500365
:1031600083F31188BFF36F8FBFF34F8FFEE7324AAF
:103170001168324B186810601960314A13680133C6
:103180001360FFF759FD2F4B1B68AB4211D9002488
:103190002D4B1B68DB6A03EB83039A002B4B9B5878
:1031A000012B00D901242A4B1B68002B3DD00124A0
:1031B0003BE0002416E0234B4FF0FF321A60E7E7B4
:1031C000204A1360E4E703EB83039A0039461F4863
:1031D0001044FEF749FEF26A1B4B1B68DB6A9A42F9
:1031E00000D30124144B1B681B68002BE3D0124B47
:1031F0001B68DB68DE6873689D42E1D3371D384683
:10320000FEF757FEB36A1BB106F11800FEF751FE38
:10321000F36A104A12689342D5D90E4A1360D2E776
:103220000D4A13680133136000242046F8BD00BF27
:103230002C580020AC580020BC530020C053002064
:103240006458002060580020B8530020C453002068
:10325000B0580020345800206858002038B5354B4D
:103260001B6843B94FF0500383F31188BFF36F8F8E
:10327000BFF34F8FFEE7FEF795FE2E4B1A68013A1B
:103280001A601B68002B4DD12B4B1B680BB9002417
:1032900049E00024294B1B681BB3284BDB68DC6822
:1032A00004F11800FEF705FE251D2846FEF701FE75
:1032B000E36A234A1268934201D9214A136003EB5F
:1032C00083039A0029461F481044FEF7CDFDE26AA9
:1032D0001D4B1B68DB6A9A42DCD31C4B01221A602F
:1032E000D8E70CB1FFF7A8FC194B1C6874B9174B51
:1032F0001B68E3B1174B4FF080521A60BFF34F8F3A
:10330000BFF36F8F01240EE0013C07D0FFF718FFD9
:103310000028F9D00D4B01221A60F5E70C4B002272
:103320001A60E4E70024FEF75FFE204638BD002463
:10333000F9E700BF2C580020245800206C580020CA
:1033400034580020C4530020B8530020B058002047
:103350006858002004ED00E010B5A8B104460F4BFA
:103360001B6843B14FF0500383F31188BFF36F8F95
:10337000BFF34F8FFEE7FFF7D5FE00212046FFF792
:10338000D1FDFFF76BFF38B9054B4FF080521A6043
:10339000BFF34F8FBFF36F8F10BD00BF2C580020BD
:1033A00004ED00E0234B1B681BB1234B01221A6084
:1033B0007047214B00221A60204B1B6803EB8301EE
:1033C0008A001F498A585AB90BB1013BF6E74FF002
:1033D000500383F31188BFF36F8FBFF34F8FFEE766
:1033E00010B408469A00D418A10001444C686468DF
:1033F0004C601A44910008310844844211D003EB18
:10340000830291000E4A0A445268D1680D4A116045
:103410000A490B60136858330B4A13605DF8044B7C
:103420007047606803EB83029100054A0A445060CC
:10343000E5E700BF2C580020B05800203458002089
:10344000C4530020B85300201000002058B110B51C
:103450000C46094B19681831FEF711FD0121204671
:10346000FFF760FD10BD4FF0500383F31188BFF3E9
:103470006F8FBFF34F8FFEE7B853002060B1034654
:103480001348006888B94FF0500383F31188BFF3E5
:103490006F8FBFF34F8FFEE74FF0500383F3118818
:1034A000BFF36F8FBFF34F8FFEE710B5184614467A
:1034B0000B46084A116843F000438B6111681831CC
:1034C000FEF7D2FC01212046FFF72CFD10BD00BF06
:1034D0002C580020B853002038B570B10C46154662
:1034E0000A4A11681831FEF7BFFC0DB14FF0FF34E6
:1034F00029462046FFF716FD38BD4FF0500383F3F1
:103500001188BFF36F8FBFF34F8FFEE7B8530020D2
:1035100038B5C368DC6824B304F118052846FEF703
:10352000C8FC184B1B682BBB251D2846FEF7C1FCA9
:10353000E36A154A1268934201D9134A136003EBF8
:1035400083039A00294611481044FEF78DFCE26A75
:103550000F4B1B68DB6A9A4211D901200D4B186092
:103560000EE04FF0500383F31188BFF36F8FBFF36A
:103570004F8FFEE729460848FEF776FCE7E7002074
:1035800038BD00BF2C58002034580020C453002000
:10359000B8530020B05800206C58002038B51C4BA0
:1035A0001B6843B94FF0500383F31188BFF36F8F4B
:1035B000BFF34F8FFEE741F000410160C468F4B1F2
:1035C000FEF777FC251D2846FEF773FCE36A114AD7
:1035D0001268934201D90F4A136003EB83039A00E8
:1035E00029460D481044FEF73FFCE26A0B4B1B686E
:1035F000DB6A9A4202D90A4B01221A6038BD4FF0A9
:10360000500383F31188BFF36F8FBFF34F8FFEE733
:103610002C58002034580020C4530020B8530020F8
:10362000B0580020034B1B680360034B1B684360CA
:10363000704700BF64580020AC580020F8B5C8B1EE
:10364000054601B30C46FEF7ADFC1B4B19686B68D1
:10365000C81A2268B2F1FF3F26D02F68174E36688D
:10366000B74201D08B4224D9824215D8002323606F
:1036700001241AE04FF0500383F31188BFF36F8FDA
:10368000BFF34F8FFEE74FF0500383F31188BFF372
:103690006F8FBFF34F8FFEE75B1A134423602846FA
:1036A000FFF7C0FF002400E00024FEF79DFC204649
:1036B000F8BD0124F9E700BFAC5800206458002091
:1036C000014B01221A607047B0580020054B1B685F
:1036D00033B1054B1B680BB10020704702207047C7
:1036E00001207047805800202C58002000283BD033
:1036F00038B504461E4A1268824208D04FF0500383
:1037000083F31188BFF36F8FBFF34F8FFEE7026D16
:1037100042B94FF0500383F31188BFF36F8FBFF3AB
:103720004F8FFEE7013A0265C06AE16C88421DD006
:103730000AB1002038BD251D2846FEF7BAFBE36C10
:10374000E362C3F13802A2610A4A1268934201D9C6
:10375000084A136003EB83039A0029460648104485
:10376000FEF782FB0120E5E7002070470020E1E73B
:10377000B853002034580020C4530020044A136872
:1037800098691368DB6A1268C3F138039361704764
:10379000B8530020064B1A6813682BB90123036045
:1037A00023B9D368186870470023F8E700207047F2
:1037B000B458002008B54160006191420CD8D21A7B
:1037C00083699A4201D3012008BD011D094B186885
:1037D000FEF755FB0020F7E79A4201D2994206D244
:1037E000011D054B1868FEF74AFB0020ECE701209D
:1037F000EAE700BFB8580020B458002030B583B0C5
:10380000FEF7D0FB114B1B681BB1FEF7EDFB03B0BD
:1038100030BD0F4D2846FEF719FB0E4C2046FEF733
:1038200015FB0D4B1D600D4B1C60002300930C4BD2
:103830000C4A10210A20FEF726FF044B18600028CE
:10384000E3D00949FFF7BAF9DFE700BFD8590020F4
:103850005C59002070590020B4580020B85800204E
:1038600088590020BC580020D859000810B588B0ED
:10387000FFF7C4FF124B1B68CBB1002405940694DC
:1038800007AA06A905A8FEF7B7F9059B0293069BB0
:103890000193022300932346079A0A490A48FFF737
:1038A0007FFB0A4B186010B1012008B010BD4FF02B
:1038B000500383F31188BFF36F8FBFF34F8FFEE781
:1038C000D8590020E0590008D53B0008DC590020F9
:1038D000C0B130B585B015460446174A106840B3EC
:1038E0001A4600910195029405291CDCFFF7EEFEB3
:1038F000022810D000231A4669460F480068FEF7D8
:1039000031FF14E04FF0500383F31188BFF36F8F42
:10391000BFF34F8FFEE70023089A69460648006808
:10392000FEF720FF03E000236946FEF7DBFF05B04A
:1039300030BD0020FBE700BFD859002070B582B031
:103940001B4B1B681A6862B3DB681E68DC68251DA8
:103950002846FEF7AEFA236A2046984794F82830A6
:1039600013F0040FECD0A36933449E4207D2636086
:10397000246129460E4B1868FEF781FAE0E7002122
:1039800000910B4632462046FFF7A2FF0028D7D110
:103990004FF0500383F31188BFF36F8FBFF34F8F46
:1039A000FEE7044A106802490860136002B070BD67
:1039B000B4580020B858002038B50546FFF7BAFBC8
:1039C0000446074B1B68834205D800232B60044B39
:1039D0001C60204638BDFFF7B1FF01232B60F6E7DE
:1039E0008459002070B582B005460E46174B1B68FF
:1039F000DB68DC68201DFEF75CFA94F8283013F0D1
:103A0000040F08D123F0010384F82830236A2046EC
:103A1000984702B070BDA1692B4632462944204622
:103A2000FFF7C8FE0028F1D0002100910B462A467E
:103A30002046FFF74DFF0028E8D14FF0500383F3F5
:103A40001188BFF36F8FBFF34F8FFEE7B45800208C
:103A500070B582B006460C46FFF764FB01A8FFF77D
:103A6000ABFF019B23BB05460CB9B04217D224B172
:103A7000114B1B681B68CBB901242246711B0F4BED
:103A80001868FFF7AFF8FFF7E9FB98B90C4B4FF058
:103A900080521A60BFF34F8FBFF36F8F0AE0FFF7BA
:103AA000DDFB29463046FFF79DFF03E00024E4E7F5
:103AB000FFF7D4FB02B070BDB8580020D8590020E1
:103AC00004ED00E030B589B006E007990698059B43
:103AD0009847049B002B0BDA002204A93C4B186882
:103AE000FEF768FF002870D0049B002BF1DAECE7AA
:103AF000069C636913B1201DFEF7DBF903A8FFF7ED
:103B00005BFF049B092BE7D8DFE803F005050531CF
:103B100038510505313894F8283043F0010384F812
:103B200028300599A5690B46024629442046FFF72F
:103B300041FE0028D0D0236A2046984794F82830C8
:103B400013F0040FC8D0A269002100910B4605981C
:103B500002442046FFF7BCFE0028BDD14FF05003C1
:103B600083F31188BFF36F8FBFF34F8FFEE794F895
:103B7000283023F0010384F82830ADE794F828308A
:103B800043F0010384F828300599A16131B103465F
:103B9000024601442046FFF70DFE9DE74FF050031B
:103BA00083F31188BFF36F8FBFF34F8FFEE794F855
:103BB000283013F0020F04D023F0010384F82830DA
:103BC0008AE72046FEF72EFC86E709B030BD00BF2D
:103BD000D859002000B583B001A8FFF7DBFD01999B
:103BE000FFF736FFFFF76EFFF6E7000010B584B071
:103BF0001C466FF001030093019002910392002391
:103C00002246694602480068FEF76CFE04B010BD0B
:103C1000D8590020DFF834D00D480E490E4A002351
:103C200002E0D458C4500433C4188C42F9D30B4A70
:103C30000B4C002301E013600432A242FBD3FCF7DB
:103C400013FF00F07FF9FCF70BFE70470000022025
:103C50000000002054080020045A000858080020E2
:103C6000D85A0020FEE700002DE9F047089E0446E0
:103C70008846002B40F085808A42154648D9B2FA22
:103C800082F24AB1C2F1200701FA02F320FA07F7E3
:103C9000954047EA030894404FEA154E230CB8FBC1
:103CA000FEF71FFA85FC0EFB178843EA084307FB63
:103CB0000CF1994209D9EB1807F1FF3080F0E3804D
:103CC000994240F2E080023F2B445B1AA4B2B3FB5E
:103CD000FEF00EFB103344EA034400FB0CFCA44549
:103CE00009D92C1900F1FF3380F0CB80A44540F2B4
:103CF000C88002382C4440EA0740A4EB0C0400279B
:103D00001EB1D4400023C6E900433946BDE8F08720
:103D1000002A53D0B2FA82F2002A40F0B680491B42
:103D20004FEA154E1FFA85F80127B1FBFEFC230C64
:103D30000EFB1C1143EA014308FB0CF1994207D921
:103D4000EB180CF1FF3002D2994200F2EC8084466D
:103D5000591AA3B2B1FBFEF00EFB101443EA04445F
:103D600008FB00F8A04507D92C1900F1FF3302D257
:103D7000A04500F2DC801846A4EB080440EA0C40A1
:103D8000BEE78B4208D9002E78D00027C6E9000193
:103D900038463946BDE8F087B3FA83F77FB98B42DE
:103DA00002D3824200F2BD80841A61EB030301203A
:103DB0009846002EA9D0C6E90048A6E7FFDEC7F165
:103DC0002005BB4022FA05FC4CEA030C01FA07F47B
:103DD00020FA05F821FA05F34FEA1C4E48EA0404DC
:103DE000B3FBFEF9210C0EFB19331FFA8CF841EAE4
:103DF000034309FB08FA9A4502FA07F200FA07F1B1
:103E00000BD91CEB030309F1FF3080F088809A4541
:103E100040F28580A9F102096344A3EB0A03A4B22E
:103E2000B3FBFEF00EFB103344EA034400FB08F83A
:103E3000A04508D91CEB040400F1FF336BD2A04568
:103E400069D90238644440EA0940A4EB0804A0FBA5
:103E500002894C45C6464B4654D351D0002E69D0FA
:103E6000B1EB0E0264EB030404FA05F522FA07F342
:103E7000FC401D43C6E90054002746E7374630465C
:103E800043E7184637E707461FE7C2F1200320FA49
:103E900003F7954001FA02F021FA03F34FEA154EB9
:103EA0003843010CB3FBFEF71FFA85F80EFB1733FE
:103EB00041EA034107FB08F38B4204FA02F407D9F5
:103EC000691807F1FF3C28D28B4226D9023F2944CA
:103ED000CB1A81B2B3FBFEF00EFB103341EA034173
:103EE00000FB08F38B4207D9691800F1FF3C10D2A0
:103EF0008B420ED902382944C91A40EA074714E711
:103F00004145ABD2B8EB020E69EB0C020138134607
:103F1000A4E76046F0E7184695E76746D8E781468C
:103F20007BE7384645E7ACF1020C2B4410E702383A
:103F30002C4421E73746E8E6014B1868704700BF7C
:103F40001000002070B50D4E0D4D761BB61006D03A
:103F50000024013455F8043B9847A642F9D1094E94
:103F6000094D761B01F0A8FCB61006D000240134E0
:103F700055F8043B9847A642F9D170BDF85900089E
:103F8000F8590008005A0008F8590008F0B48607EC
:103F900046D0541E002A3CD0CAB2034602E014F1B7
:103FA000FF3436D303F8012B9D07F8D1032C29D910
:103FB000CDB245EA05250F2C45EA054533D9A4F1D4
:103FC0001006360903F1200707EB061703F110026C
:103FD00042E9045542E902551032BA42F8D1721C46
:103FE00014F00C0F03EB021204F00F0613D0331F72
:103FF00023F003030433134442F8045B9342FBD1E0
:1040000006F003042CB1C9B21C4403F8011B9C4206
:10401000FBD1F0BC704734461346002CF3D1F8E7CF
:1040200014460346C2E71A462646E0E770B5054641
:1040300088B008460C46FCF783F9224AAB6B04941F
:104040000126441C04A90692022203940590AC6840
:104050000796CDE901121BB3616EB4F90C30CE079F
:104060009AB201D4900525D5910406D4626E43F42A
:10407000005322F40052A3816266284601AA214619
:1040800000F050FA636E002814BF4FF0FF350A2588
:10409000DA0702D4A3899B0506D5284608B070BD6F
:1040A000284600F0A9F8D7E7A06D00F0EFFB2846FE
:1040B00008B070BDA06D00F0E7FBB4F90C309AB207
:1040C000D2E700BFEC590008024B01461868FFF721
:1040D000ADBF00BF1000002038B50C46096805468A
:1040E00009B1FFF7F9FF21462846BDE8384000F046
:1040F00023B900BF204B1B6883423BD0C36C70B513
:1041000005468BB10026995939B10C68284600F054
:1041100013F92146002CF8D1EB6C0436802EF2D135
:104120001946284600F008F9296C11B1284600F01C
:1041300003F9D5F8481151B105F5A676B14206D07C
:104140000C68284600F0F8F8A6422146F8D1696DBF
:1041500011B1284600F0F0F8AB6B53B1EB6B284679
:104160009847D5F8E01221B12846BDE87040FFF726
:10417000B3BF70BD704700BF10000020024B13B1E9
:10418000024800F005B870470000000065420008D2
:10419000002301461A46184601F032B910B5002333
:1041A00004468181C281C0E9003383604366C0E96F
:1041B00004338361194608225C30FFF7E7FE0748A5
:1041C0000749084A084BE362C4E90740C4E90912F9
:1041D00004F15800BDE8104000F052BB79520008CD
:1041E0009D520008DD520008FD520008014900F010
:1041F0001DBB00BFAD54000810B50446114800F0C7
:1042000043FBA26BC2B904F53B730F48C4F8E0222C
:104210000321C4E9B913E06304216068FFF7BEFF1E
:1042200001220921A068FFF7B9FF02221221E068EC
:10423000FFF7B4FF0123A3630248BDE8104000F07C
:1042400025BB00BFC05A0020ED410008014800F026
:104250001BBB00BFD45A0020014800F017BB00BFB1
:10426000D45A002038B50A4C0A4D641BA4100AD059
:1042700004F18043013B05EB8305013C55F804390B
:104280009847002CF9D1BDE8384001F01BBB00BFB6
:10429000045A0008005A0008F8B5244F0C46064698
:1042A00000F016FEBB685D68C4F57E610F3125F035
:1042B0000305294421F47F6121F00F01A1F5805409
:1042C000B4F5805F07DB0021304600F0C3FFBB6818
:1042D0002B44984204D0304600F000FE0020F8BD88
:1042E0006142304600F0B6FF01300DD0104BBA6885
:1042F00019682D1B45F001053046091B55601960F2
:1043000000F0ECFD0120F8BD0021304600F0A2FFD6
:10431000BA68831A0F2BDEDD064C0549246843F08A
:104320000103001B53600860D5E700BF4404002070
:10433000E05900204C08002000295DD0F8B50F4658
:10434000064600F0C5FD57F804CC734C2CF0010371
:10435000A7F10800C218A1685568914225F003052D
:104360007FD01CF0010F556002EB050133D157F8E7
:1043700008EC4968A0EB0E0004F1080C876867455B
:10438000734401F0010160D0D0F80CE0C7F80CE0F4
:10439000CEF80870002900F0898043F001014160E7
:1043A0001360B3F5007F30D2DB08591C65689A10A2
:1043B000012393402B4304EBC10254F83150636056
:1043C000083AC0E9025244F83100E8603046BDE8DE
:1043D000F84000F083BD4968C9070ED42B4404F1AE
:1043E000080C9168614543F0010567D0D268CA6046
:1043F00091604560C350D4E7704743F00101B3F5C5
:10440000007F47F8041C1360CED35A0A042A42D80E
:104410009A0902F13907FF0002F13801E519E25962
:10442000083D954251D0516821F00301994202D9CB
:1044300092689542F7D1D568C0E90225A860D0609E
:104440003046BDE8F84000F049BD00295ED1D2E910
:1044500002122B4443F00104CA6091604460C350CF
:10446000B4E71CF0010F2B4407D157F8082C801A31
:104470001344D0E90212CA609160284A126843F0DE
:1044800001019A424160A060A0D8254B30461968CE
:10449000FFF702FF9AE7142A0AD9542A1DD81A0BEB
:1044A00002F16F07FF0002F16E01B7E72B4498E7B6
:1044B00002F15C07FF0002F15B01AFE7C4E9040011
:1044C000C0E902CC4560C35080E7636889100127CA
:1044D00007FA01F119436160AEE7B2F5AA7F06D889
:1044E000DA0B02F17807FF0002F1770196E740F25C
:1044F00054518A4206D89A0C02F17D07FF0002F15E
:104500007C018BE74FF47E777E2187E743F0010142
:10451000416013605AE700BF4404002050080020A7
:10452000105A00209368002B00F002812DE9F04F13
:10453000B1F90C309BB20C46190783B08246904605
:1045400035D522699AB313F00202D8F800603DD045
:104550000027D4F824B0D4F81CC0DFF8CC923D4634
:104560004D452B463A4628BF4B4661465046D5B18D
:10457000D847002840F3D280D8F808301B1A0744E7
:104580002D1AC8F80830002B00F0B780D4F81CC0F2
:10459000D4F824B04D452B463A4628BF4B466146D9
:1045A0005046002DE4D1D6E900750836D8E72146FB
:1045B000504600F0BDFE002840F03081B4F90C30C8
:1045C000D8F800609BB213F00202C1D113F00109C8
:1045D00040F0B080A76820684D46002D54D09A0561
:1045E00040F1BC80AF42BB4600F2E78013F4906F0D
:1045F0002FD0D4E9041707EB4707A0EB010B07EB1B
:10460000D777681C7F105844B8423A4684BF0746A3
:104610003A465B0540F1E9801146504600F038F912
:10462000002800F0F5805A4621690190FBF7E2FD71
:10463000A289019B22F4906242F08002A281A7EB42
:104640000B0203EB0B00676123612060A2602F4621
:10465000AB465A46494600F0D3FBA2682368D21BFA
:104660005B442F46A26023600025D8F80830DB1B8E
:10467000B944C8F80830002B3FD0B4F90C30A76813
:1046800020689BB2002DAAD1D6E900950836A4E790
:104690000BF1080353E902679B460833002FF9D05A
:1046A0003A460A213046FBF7BBFE002853D00130C2
:1046B000A0EB06094B46D4E904122068BB4228BF90
:1046C0003B46884203D9A5681544AB4219DC9A429F
:1046D0007DDC1346656AE16932465046A847051EEF
:1046E0001CDDB9EB05096BD00120D8F808305B1B45
:1046F0002E447F1BC8F8083013BB002003B0BDE870
:10470000F08F31462A4600F07BFB23682B44236060
:104710002146504600F0D8FF0028E2D0B4F90C3012
:1047200043F040034FF0FF30A38103B0BDE8F08FAA
:104730000020704733469146104617464E469B462A
:10474000002FA5D00028B5D13A460A213046FBF704
:1047500067FE0028ABD17B1C9946ACE723698342F6
:1047600015D36169A94212D82E4B676A9D4294BF46
:104770002B466FF000434A4693FBF1F3504601FB92
:1047800003F3E169B847071EC8DDED1B6DE7AF42D3
:1047900028BF2F463A46494600F032FBA3682268FC
:1047A000DB1B3A44A3602260002BEED12146504629
:1047B00000F08AFF0028E8D0B0E72F46AB4648E774
:1047C0002146504600F080FF00288ED0A6E71A460A
:1047D0003146019300F014FB019BA1682268C91ABD
:1047E0001A44A16022601D467BE7504600F07CFB26
:1047F000034600287FF423AF21695046FFF79CFD54
:10480000B4F90C300C2223F08003CAF8002087E7AB
:104810000C23CAF80030B4F90C3081E74FF0FF30B8
:104820006CE700BFFEFFFF7F00FCFF7F2DE9F84330
:1048300010F538771FD0884606464FF00009D7E9B3
:104840000154013D11D4A389012B05F1FF3508D98D
:10485000B4F90E3001332146304602D0C04749EA50
:1048600000096B1C04F16804EDD13F68002FE6D10C
:104870004846BDE8F883B9464846BDE8F88300BF1E
:10488000704700BF704700BF704700BF704700BF50
:104890002DE9F04F01F10B05162D83B0064623D804
:1048A000102900F2B98000F013FB10251823022014
:1048B000BA4F3B44A3F108025C68944200F0B9800F
:1048C000636823F003032344D4E902515A68E96082
:1048D00042F0010230468D605A6000F0FFFA083461
:1048E000204603B0BDE8F08F35F0070500F1948055
:1048F000A94200F2918000F0EBFAB5F5FC7FC0F020
:10490000A2816B0A00F08F80042B00F27881AB0942
:1049100003F1390003F1380CC300A04F3B44A3F16D
:1049200008015C68A14206D10CE0002A80F22781D0
:10493000E468A14206D0636823F003035A1B0F2AE0
:10494000F3DD60463C69DFF868C264457CD063688B
:1049500023F003035A1B0F2A00F38381002AC7E9BF
:1049600004CC80F27481B3F5007F80F02581DB08F0
:10497000591C7A6857F83180C4F808804FF0010E4E
:104980009B100EFA03F307EBC10E1343AEF10802BE
:10499000E2607B6047F83140C8F80C408210012487
:1049A00094409C4256D81C4206D120F0030064007B
:1049B0001C4200F10400FAD007EBC009CE46804645
:1049C000DEF80C309E4507D125E1002A80F22C81CB
:1049D000DB689E4500F01F81596821F003014A1BE6
:1049E0000F2AF2DDD3E9028E5C1945F001055D6006
:1049F00042F00105C8F80CE03046CEF80880C7E95F
:104A00000444C4E902CC65605A50009300F066FA91
:104A1000009B03F1080402E00C23336000242046CD
:104A200003B0BDE8F08F4FF4007340204FF03F0C0F
:104A300073E7DC68A34208BF02307FF441AF3C69F2
:104A4000DFF86CC1644582D17B68821001249440F8
:104A50009C42A8D9BC68636823F00308A84503D327
:104A6000A8EB05030F2B7ADCDFF848914C4BD9F803
:104A700000201B6801322B4404EB080A00F03C8143
:104A800003F580530F3323F47F6B2BF00F0B594644
:104A9000304600F0DFFB411C024600F0FC808245FE
:104AA00000F2F7803F4B186858441860014600F048
:104AB0005781D9F80000019301301BBFA2EB0A0A0D
:104AC0005144C9F80020196012F0070A00F0208153
:104AD000CAF108010A44CAF5805193440831A1EB98
:104AE0000B01C1F30B0949463046009200F0B2FBBE
:104AF000421CDDE9002300F05881801A00EB090B0D
:104B00001868BA604BF001014844BC42516018601B
:104B100000F03281B8F10F0F40F230816168A8F1E6
:104B20000C0C2CF0070C01F0010104EB0C0E41EA17
:104B30000C014FF00508BCF10F0F6160CEE9018850
:104B400000F23B8151681446174B1A68824238BF05
:104B50001860164B1A68824238BF18609DE06219CF
:104B600043F0010345F0010565603046BA605360CB
:104B700000F0B4F90834204603B0BDE8F08F2344B8
:104B8000E1685A68A56842F00102E96030468D602C
:104B90005A6000F0A3F9083441E700BF4404002044
:104BA000105A0020E0590020085A00200C5A00201A
:104BB0004C0400204C0800205A0A042A63D9142A05
:104BC00000F2B78002F15C01C9005B3207EB010E15
:104BD0007958AEF1080E8E4500F091804A6822F0B7
:104BE00003029A4202D989688E45F7D1D1F80CE0C8
:104BF0007B68C4E9021ECEF80840CC60CEE6142BD8
:104C000059D9542B00F29D802B0B03F16F0003F157
:104C10006E0CC30081E608F1010818F0030F0EF1D5
:104C2000080E7FF4CDAE51E019441C464A68DB689B
:104C300054F8085F42F001024A603046EB609D6024
:104C400000F04CF9EBE6E80805F1080330E62344F0
:104C500030465A6842F001025A60083400F03EF9CA
:104C6000DDE6611945F0010E42F00105C4F804E0EB
:104C70003046C7E90411C1E902CC4D60E25000F0B2
:104C80002DF90834CBE69A0902F13901C90038320E
:104C90009CE7BC425FD0BC68616821F0030BAB4568
:104CA000ABEB050302D30F2B3FF759AF304600F0B3
:104CB00015F90024B3E603F15C0003F15B0CC300BB
:104CC0002BE659F808394B4540F0968010F0030F59
:104CD00000F1FF30F5D17B6823EA04037B606400B8
:104CE0009C423FF6B7AE1CB9B4E6640008F1040874
:104CF0001C42FAD040465FE603F1100BC7E67B6822
:104D000092104FF0010808FA02F213437B6070E73B
:104D100002EB0B004042C0F30B09494630460092BB
:104D200000F098FA431CDDE900237FF4E6AED1469B
:104D3000E6E6542A25D81A0B02F16F01C9006E323B
:104D400044E7B3F5AA7F25D8EB0B03F1780003F114
:104D5000770CC300E1E5294B196859441960A8E6AE
:104D6000CAF30B0CBCF1000F7FF4A3AEC344BC68C4
:104D70004BF001016160E7E61446E5E6012353606C
:104D800094E7B2F5AA7F23D8DA0B02F17801C900C3
:104D900077321BE740F25452934223D8AB0C03F115
:104DA0007D0003F17C0CC300B7E5AAF1080AD344E7
:104DB000ABEB020B4FF00009A2E604F1080130460C
:104DC0000093FFF7B9FABC68009B61681868BBE6FE
:104DD00040F254518A420BD89A0C02F17D01C9006D
:104DE0007C32F3E64FF47E737F204FF07E0C94E527
:104DF0004FF47E717E22E9E67B6870E7E05900207F
:104E00008842F0B40DD98B1883420AD9841832B184
:104E1000224613F8014D02F8014D9942F9D1F0BC38
:104E200070470F2A0ED80346541E002AF7D00134CB
:104E30000C44013B11F8012B03F8012FA142F9D1D9
:104E4000F0BC704740EA01039B073BD1A2F1100779
:104E50003F0901F1200606EB071601F1100300F1EE
:104E6000100453F8105C44F8105C53F80C5C44F8E0
:104E70000C5C53F8085C44F8085C53F8045C44F894
:104E8000045C1033B34204F11004EAD17B1C1B0113
:104E900012F00C0F194402F00F05034415D0043D25
:104EA000AD0803EB850C1C1F0E4656F8047B44F836
:104EB000047F6445F9D10135AD002B44294402F04B
:104EC0000302B1E7541E0346B1E72A46ACE700BF30
:104ED0000148FFF7D9BC00BFC45A00200148FFF7C2
:104EE000D5BC00BFC45A00202DE9F84F1746002951
:104EF00000F0BB8007F10B0481460D46FFF7E8FF89
:104F0000162C5ED810242246A7425FD855F804EC30
:104F10002EF00306A5F10808964208EB060A80F277
:104F20008180CB4BDAF804009968514500F0B580D8
:104F300020F0010353445B68DB0700F18A8020F016
:104F400003003318934280F212811EF0010F0FD13B
:104F500055F8083CA8EB030BDBF8041021F0030123
:104F600008448319934280F216817318934234DA0D
:104F700039464846FFF78CFC0746E0B155F8043C3B
:104F800023F001034344A0F10802934200F0F780AC
:104F9000321F242A00F2FB80132A296800F2C980FC
:104FA00003462A4619605168596092689A602946FA
:104FB0004846FFF7C1F94846FFF790FF3846BDE87D
:104FC000F88F24F00704002C22469DDA0C23C9F840
:104FD000003000273846BDE8F88F5F46DBF80C103C
:104FE00057F8080F321F242AC1600BEB030A8860B0
:104FF00000F2D980132A296840F2D380CBF8081038
:105000006968CBF80C101B2AA96800F2E0800BF14C
:1050100010020835116069685160A96891601E46E8
:10502000D8463D46D8F80430321B0F2A03F001035E
:1050300020D83343C8F80430DAF8043043F00103D1
:10504000CAF8043048462F46FFF748FF3846BDE807
:10505000F88F1EF0010F8BD155F8083CA8EB030B1D
:10506000DBF8041021F003017FE71146BDE8F84F9B
:10507000FFF70EBC08EB0401234342F00102C8F81D
:1050800004304A60DAF8043043F001030831CAF80A
:1050900004304846FFF750F9D4E720F003003118F8
:1050A00004F1100C61454FDA1EF0010F7FF460AF80
:1050B00055F8081CA8EB010BDBF8041021F00301E4
:1050C000084400EB060AD4453FF74FAF5F46DBF8D4
:1050D0000C1057F8080F321F242AC160886000F2B4
:1050E0009980132A296840F29380CBF808106968E8
:1050F000CBF80C101B2AA96800F292800BF1100269
:105100000835116069685160A96891600BEB040172
:10511000AAEB040242F0010299604A60DBF8043015
:1051200003F001031C434846CBF80440FFF7D6FECA
:1051300050E701606B6843601B2A3CD805F1080208
:1051400000F10803A9682DE708EB04000A1B42F0F0
:1051500001029860426055F8043C03F001031C43CF
:10516000484645F8044CFFF7B9FE2F4632E7DAE926
:1051700002121E46CA6008EB030A916052E750F81B
:10518000043C23F003031E4408EB060A4AE72946C1
:10519000FFF736FE0BE7DAE902125F46CA6091605C
:1051A0001CE73A4636E7294638461E46D846FFF7FA
:1051B00027FE3D4636E7AB688360EB68C360242A70
:1051C00011D005F1100200F110032969EAE6CBF8CD
:1051D0001010E968CBF81410242A0ED029690BF1BD
:1051E0001802103516E72B6903616B694361A969E1
:1051F00005F1180200F11803D4E62A69CBF818204B
:105200006A69CBF81C20A9690BF12002183501E767
:105210003A4676E729463846FFF7F2FD0C4B75E72C
:10522000CBF81010E968CBF81410242A04D02969AF
:105230000BF11802103564E72A69CBF818206A6967
:10524000CBF81C20A9690BF12002183559E700BFE3
:105250004404002038B5074C002305460846236067
:10526000FBF7DEFB431C00D038BD2368002BFBD0CE
:105270002B6038BDB05A002010B50C46B1F90E10A5
:1052800000F0DEFA002803DB236D0344236510BD24
:10529000A38923F48053A38110BD00BF2DE9F04101
:1052A0001646B1F90C201F46D3050C460546B1F948
:1052B0000E1009D422F48052A2813B463246284681
:1052C000BDE8F04100F01EB80022022300F02AFAE7
:1052D000B4F90C20B4F90E10ECE700BF10B50C4681
:1052E000B1F90E1000F01EFAA389421C0EBF23F480
:1052F000805343F480532065A38110BDB1F90E1093
:1053000000F0C2B870B50D46084C114606461A4664
:10531000284600232360FBF768FB431C00D070BDC8
:105320002368002BFBD0336070BD00BFB05A002053
:1053300038B5324B1B6805460C460BB19A6B12B35D
:10534000B4F90C2093B2180725D5206900282DD078
:1053500013F0010207D0636900225B42A361A260DF
:1053600038B1002038BD990758BF6269A260002893
:10537000F7D1B4F90C301A06F4D543F04003A381F9
:105380004FF0FF3038BD1846FEF736FFB4F90C2059
:1053900093B21807D9D4D90628D5580712D4206952
:1053A00042F00803A3819BB20028D1D103F42072FC
:1053B000B2F5007FCCD02846214600F0F7F9A3894A
:1053C0002069C5E7216B51B104F14003994204D033
:1053D0002846FEF7B1FFB4F90C2000232363002315
:1053E0002069636022F024022060D9E742F0400285
:1053F00009232B604FF0FF30A28138BD1000002040
:105400002DE9F0411E4C0546206890461F460E4689
:10541000FFF73AFA1B4B1A68D2F8483133B35A688F
:1054200020681F2A27DC4DB9911C01325A6043F8CD
:105430002160FFF72BFA0020BDE8F08103EB820129
:105440000124C1F8888004FA02FED3F88841022DB5
:1054500044EA0E0CC3F888C1C1F80871E4D1D3F84E
:105460008C114EEA0104C3F88C41DDE702F5A67306
:10547000C2F84831D3E7FFF709FA4FF0FF30DBE716
:1054800040040020E859000838B5074C00230546C1
:1054900008462360FBF7B7FA431C00D038BD2368E9
:1054A000002BFBD02B6038BDB05A002070B500290E
:1054B0004AD005460C4610B1836B002B47D0636E73
:1054C000B4F90C20D80732D5002A3DD02146284611
:1054D00000F054F8E36A064633B1E169284698477C
:1054E0000028B8BF4FF0FF36A3891A063CD4216BC1
:1054F00041B104F14003994202D02846FEF71CFF57
:1055000000232363616C21B12846FEF715FF0023B9
:105510006364FEF79BFE636E0022DB07A28128D541
:10552000A06DFFF7AFF9FEF797FE304670BD91050D
:10553000CCD4A06DFFF7A8F9B4F90C30002BC5D17D
:10554000666E16F001060AD00026304670BDFEF7E2
:1055500053FE636EB4F90C20D807B5D4E7E7A06D0D
:10556000FFF794F9304670BD21692846FEF7E4FE46
:10557000BDE7A06DFFF78AF9D2E700BFB1F90C30A3
:105580009AB22DE9F0410C461107804648D4626872
:1055900043F40063002AA3815DDDA56A002D57D086
:1055A00000229BB2D8F80060E169C8F8002013F42B
:1055B000805254D101234046A847431C024665D07F
:1055C000A389A56AE1695F0705D56068236B121A94
:1055D0000BB1E36BD21A00234046A847451C48D1C3
:1055E000D8F80020B4F90C30002A5CD01D2A01D074
:1055F000162A64D122690021C4E9002123F4006342
:10560000A381216BC8F8006011B304F140039942F3
:1056100002D04046FEF790FE00202063BDE8F081F6
:105620002669AEB12568266091070CBF6369002327
:10563000AD1BA3600AE02B463246676AE16940462B
:10564000B8470028A5EB000506440ADD002DF2DC72
:105650000020BDE8F081E26B002A9EDCF8E7226DB5
:10566000B1E7A38943F04003A3814FF0FF30BDE8C9
:10567000F081B4F90C302269226023F40063002227
:105680006260DA04A381BCD52065BAE7D8F800309F
:10569000002B95D01D2B0FD0162B0DD0A38943F0D6
:1056A0004003A381D5E723F400632169A381DB04D0
:1056B000C4E90012A5D5E7E7C8F80060C8E743F0E1
:1056C0004003A381C5E700BF38B50D46044608B1C5
:1056D000836BA3B1B5F90C00B8B16B6EDB0701D4D5
:1056E000810515D520462946FFF748FF6B6EDA077E
:1056F000044602D4AB899B050ED5204638BDFEF783
:105700007BFDB5F90C000028E7D10446204638BDE2
:10571000A86DFFF7B9F8E5E7A86DFFF7B7F82046E1
:1057200038BD00BF70B50D46084C114606461A46F6
:10573000284600232360FBF770F9431C00D070BD9E
:105740002368002BFBD0336070BD00BFB05A00202F
:1057500070B50C46B1F90E10002996B015461E46DC
:1057600014DB6A4600F082F800280FDB019A02F48D
:105770007042A2F50052B2FA82F252094FF48063ED
:105780004FF4006032602B6016B070BDA289002318
:1057900012F08000336004D0402218462A6016B010
:1057A00070BD4FF480632B6016B070BD8A8992077C
:1057B0000B4606D501F1430201211A60C3E9042119
:1057C000704770B582B001AB6A460C460646FFF7DB
:1057D000BFFF009905463046FFF75AF8B4F90C3080
:1057E00070B11649F163019A0099206043F080037B
:1057F000A381C4E904018AB92B43A38102B070BD1F
:105800009A05FBD423F0030304F1430243F002039F
:105810000121A3812260C4E90421EFE73046B4F9F5
:105820000E1000F037F810B9B4F90C30E4E7A38992
:1058300023F0030343F001031BB2DDE7ED41000851
:1058400070B50D46084C114606461A4628460023F8
:105850002360FBF7BAF8431C00D070BD2368002B0F
:10586000FBD0336070BD00BFB05A002038B50B4686
:10587000074C05461146184600232360FBF7C6F87F
:10588000431C00D038BD2368002BFBD02B6038BDF3
:10589000B05A002038B5074C00230546084623605F
:1058A000FBF7B9F8431C00D038BD2368002BFBD0B0
:1058B0002B6038BDB05A0020F8B500BFF8BC08BC5A
:1058C0009E467047F8B500BFF8BC08BC9E467047BE
:1058D000B0590008000000000000000000000000B7
:1058E000000000000002000018000000000000009E
:1058F00000000000A859000800000000000000009F
:10590000000000000000000000020000180000007D
:105910000000000000000000A05900080000000086
:105920000000000000000000000000000002000075
:10593000180000000000000000000000845900086A
:105940000000000000000000000000009059000866
:105950000000000000000000000000000000000047
:1059600000000000496E707574206572726F7200DD
:1059700050726F6772616D2072756E6E696E672E00
:105980002E2E000055415254466C61677300000092
:10599000554152546461746151756575650000002C
:1059A0005461736B330000005461736B320000006C
:1059B0005461736B31000000000000000000000023
:1059C00001020304060708090000000001020304A5
:1059D00049444C4500000000546D72510000000025
:1059E000546D722053766300180000200A000000F6
:0859F00078E2FF7F01000000D6
:0859F8007D41000829050008AB
:045A00000105000894
:105A04000024F4000100000010000000AAAAAAAAC1
:105A14001800002000000000000000000403002023
:105A24006C030020D40300200000000000000000EC
:105A34000000000000000000000000000000000062
:105A44000000000000000000000000000000000052
:105A54000000000000000000000000000000000042
:105A64000000000000000000000000000000000032
:105A74000000000000000000000000000000000022
:105A84000000000000000000000000000000000012
:105A94000000000000000000000000000000000002
:105AA40000000000000000000000000000000000F2
:105AB40000000000000000000000000000000000E2
:105AC40001000000000000000E33CDAB34126DE67F
:105AD400ECDE05000B0000000000000000000000E8
:105AE40000000000000000000000000000000000B2
:105AF40000000000000000000000000000000000A2
